:020000040800F2
:100000000000022051770C08D5770C0859DB060850
:10001000D5770C08D5770C08D5770C0800000000C0
:10002000000000000000000000000000D5770C0870
:10003000D5770C0800000000D5770C08C1480508EA
:10004000D5770C08D5770C08D5770C08D5770C0830
:10005000D5770C08D5770C08BD1B0508C11B050812
:10006000C51B0508C91B0508CD1B05083946040832
:100070004946040859460408694604087D460408B0
:1000800091460408A5460408D5770C08D5770C08D6
:10009000D5770C08D5770C08D5770C08D11B050847
:1000A000D5770C08D5770C08D5770C08DD480408FF
:1000B000F14804080549040819490408AD39040841
:1000C000A1390408DD390408D1390408D5770C08B2
:1000D000D5770C08B5520408C1520408CD52040863
:1000E000D51B0508D5770C08000000005549040809
:1000F000A5490408CD49040841490408B946040843
:10010000D5770C08A98C04082D490408D5770C086C
:10011000D9520408D5770C08D5770C0829A1040812
:10012000CD460408E1460408F546040809470408DA
:100130001D470408D5770C08D5770C08D5770C082F
:1001400000000000000000000000000000000000AF
:10015000314704084547040859470408E552040894
:100160000D3A0408013A0408D5770C08D5770C0835
:10017000D5770C08D5770C08D5770C08000000005F
:10018000D5770C08D5770C08F1520408FD52040805
:10019000D5770C08D5770C08D5770C08D5770C08DF
:1001A000D5770C08D5770C08D5770C08D5770C08CF
:1001B000D5770C08D5770C08D5770C08D5770C08BF
:1001C000D5770C08D5770C08D5770C08D5770C08AF
:1001D000D5770C08DD8C0408D5770C08D5770C088A
:1001E000D5770C08D5770C08D5770C08D5770C088F
:1001F000D5770C08D5770C08D5770C08D5770C087F
:10020000D5770C08D5770C08D5770C08D5770C086E
:10021000694904087D49040891490408D5770C0808
:10022000D5770C08D5770C08D5770C0800000000AE
:10023000AD8C0408D5770C0800000000D5770C08B9
:10024000D5770C08D5770C08D5770C08D5770C082E
:10025000D5770C08D5770C08D5770C08D5770C081E
:10026000D5770C08D5770C08D5770C08D5770C080E
:10027000D5770C08D5770C08D5770C08000000005E
:10028000D5770C0800000000D5770C0800000000AE
:0802900000000000D5770C0806
:08029800B8670C000100000032
:1002A00070C60124020400000401450090C6012428
:1002B0000205000004014400B0C60124011300003F
:1002C00000017600D0C601240115000000011E00C7
:1002D000F0C60124011B000000010D0010C701241D
:1002E000011C000000012C0030C701240116000091
:1002F00000010C0050C701240117000000010C0090
:1003000070C70124011D000000010E0090C70124E8
:10031000011E000000011E00B0C7012401180000EA
:1003200000010C00D0C701240119000000010E00DB
:10033000F0C70124011A000000010C0010C80124BC
:100340000120000000010C0030C801240121000040
:1003500000010C0050C80124012A0100000018000F
:1003600070C80124012200000000480090C8012448
:100370000123000000004900B0C80124012400004E
:1003800000004A00D0C801240125000000004B00F5
:10039000F0C801240126000000004C0010C901240F
:1003A0000127000000004D0030C901240128000091
:1003B00000004E0050C901240129000000004F0038
:1003C00070C90124012D00000000290090C90124FA
:1003D000012E010000002900B0C90124012F0100F5
:1003E00000007000D0C9012401310000000031007C
:1003F000F0C90124013001000000520010CA01249C
:10040000013201000000280030CA0124013300003D
:100410000000760050CA01240134010000002800C9
:1004200070CA0124022B050000002C0090CA012490
:100430000137000000013C00B0CA0124013A00006D
:1004400000002000D8CA01240115000100001E0090
:10045000F8CA0124011B000100000D0018CB012483
:10046000011C000100002C0038CB01240116000102
:1004700000000C0058CB01240117000100000C0003
:1004800078CB0124011D000100000E0098CB01244F
:100490000118000100000C00B8CB01240119000173
:1004A00000000E00D8CB0124011A000100000C004E
:1004B000F8CB0124011E000100001E0018CC01240D
:1004C0000120000100000C0038CC012401210001B2
:0404D00000000C001C
:020000040804EE
:10000000836B5A6D12F0500F5A6D1AD1196842F471
:1000100000725A650A6812F0080FCA6816D012F406
:10002000406F15D1CA68920412D45A6D22F48072BE
:100030005A655A6DD1040BD45A6D42F001025A65CB
:100040007047D20604D4DB6CDB6C18479007ECD009
:10005000704700BF704700BF836B5A6D42F040028B
:100060005A659A6D42F004029A65704702685549D4
:1000700038B5554B554D564CAA4218BF9A420CBF45
:10008000012300238A4208BF43F001033031A2421A
:1000900008BF43F0010330348A4208BF43F0010334
:1000A0003031A24208BF43F0010330348A4208BF16
:1000B00043F0010301F55C71A24208BF43F0010364
:1000C00004F55C748A4208BF43F001033031A24258
:1000D00008BF43F0010330348A4208BF43F00103F4
:1000E0003031A24208BF43F0010330348A4208BFD6
:1000F00043F001033031A24208BF43F001038A42BA
:1001000008BF43F0010313B9324B9A4208D10423CC
:1001100080F83530136823F001031360002038BDE8
:100120002D4B2E4D1168AA4218BF9A422C4C21F03B
:100130000E0105F13C050CBF012300231160A24212
:1001400008BF43F0010311682834AA4208BF43F0F6
:10015000010321F00101A24208BF43F0010314345E
:100160001160A24208BF43F001031E498A4208BF42
:1001700043F0010313B91C4B9A4217D10123856D3B
:10018000D0E91714226801F01F0122F480728B401D
:1001900022606B60C36ED0E91921516033B11A68D7
:1001A000D0E91C1422F480721A604C6001210022F4
:1001B000036D80F8351080F83420002BAED09847BE
:1001C000ACE700BF4000024010000240280002409F
:1001D00058000240B80402401C5402580854025807
:1001E0003054025880540258945402580168002236
:1001F0000B6880F842205A0410B40ED50B6823F423
:1002000080430B6090F84130292B10D090F841309A
:100210002A2B24D05DF8044B70471B04F2D50B68E1
:1002200023F400430B6090F84130292BEED12822B3
:10023000212380F841200022036390F841300C68AC
:1002400003F02803282B14BF6FF0F2036FF0420372
:1002500023405DF8044B0B6080F840207047282253
:10026000222380F841200022036390F841300C687B
:1002700003F02803282B14BF6FF0F4036FF044033E
:1002800023405DF8044B0B6080F84020704700BFAE
:100290000023202210B4174C4363C462036380F828
:1002A000412080F842304B07026811D5526A436AF8
:1002B0001A70436A028D013343624AB1438D013A99
:1002C000013B02859BB24385436C43F004034364C6
:1002D0000368102490F84120002190F841201A680A
:1002E00022F0FE021A60DC615DF8044B80F84010D9
:1002F000704700BF0000FFFF70B5574B002590F816
:100300004120044680F84250283AC3624585436C38
:10031000022A41EA0301036841642FD890F8411092
:1003200090F84120282001F0280102F02802282915
:1003300014BFF6214621282A1A680CBFC9436FF062
:10034000F6010A4045491A6084F84100A06B226B0F
:10035000616318B1112A42D0212A40D0E06B18B154
:10036000122A51D0222A4FD094F84130602B4FF0FE
:1003700000032DD0236384F8403070BD90F84120F5
:1003800090F841201A6822F0FE021A609A699207DA
:1003900000D59D629A69D60703D49A6942F001029A
:1003A0009A6194F84120602A10D0202284F84120DC
:1003B0009A6995060AD59A69D00605D51022DA61A0
:1003C000626C42F0040262642022DA610021BDE71F
:1003D000202284F8403084F84120236370BD1A68DD
:1003E00051042CD490F83530012BBDD000221C4B89
:1003F000036584F8402090F83520022A24D080221A
:100400004265BDE8704018471A68120403D51A689F
:1004100022F400421A6090F83530012BA4D000225B
:100420000F4B036584F8402090F83520022AE6D16E
:10043000FFF71CFE0028A0D0E06B036DE1E71A680F
:1004400022F480421A60CDE7FFF710FE002894D016
:10045000A06B036DD5E700BF0000FFFFDD040408BB
:100460002D08040803689A69196810B4D40528D5C2
:100470000C0606D4416C11F00B0F1FD15DF8044B34
:100480007047416C4FF4807441F0010141645105A3
:10049000DC6120D5416C4FF48064920541F0080185
:1004A0004164DC61E6D5426C4FF4007142F0020217
:1004B0004264D961416C11F00B0FDFD05DF8044B41
:1004C0001AE7540502D50906E4D4D3E79405D1D53B
:1004D0000906E8D4CEE79205E5D4CBE7F8B590F865
:1004E00040300D46C16A012B00F008810123AE06A1
:1004F000044680F8403001D5900656D4EB0619D555
:10050000D70617D5638D9BB2002B40F0F98094F885
:100510004130B1F1007FDBB240F0D580282B40F0B4
:10052000D28029462046FFF7B3FE0023184684F800
:100530004030F8BD68071AD42F0701D516074AD4F2
:10054000A807F2D59307F0D5638D9BB2002B00F07E
:10055000FA80616A236811F8010B228D9862638D1D
:10056000013A6162013B22859BB26385DDE7530757
:10057000E2D5638D9BB26BB12268636A526A1A70CE
:10058000638D606A228D013B0130013A9BB260624B
:1005900022856385638D9BB2002BC6D111F5803F08
:1005A000C3D02046FFF722FEBFE72368202118684A
:1005B000E66A94F84120D961213A092A1ED8DFE879
:1005C00012F0C70015001D001D001D001D001D00BC
:1005D000F000C700150094F84130226803F02803AA
:1005E000282B00F0C5800823D3619EE794F84120B2
:1005F0001A6822F0FC021A60222222635A68894992
:1006000042F400425A605A680A405A609A69910757
:1006100001D500229A629A69D20703D49A6942F0FE
:1006200001029A6147047BD51A6822F480421A605D
:10063000A26B1AB111684A6892B262856A070BD53B
:100640005A6A25F00405636A1A70636A01336362AB
:10065000238D002B40F08580638D9BB21BB1636CB2
:1006600043F004036364EB061AD5C70618D5638DFF
:100670009BB2002B40F0AA8094F84130282B03D184
:10068000B6F1007F00F0C98094F8413016F5803F44
:100690002268DBB202D0292B00F0AD801023D36199
:1006A000002384F84230666C6363002E40F084803F
:1006B000E36A5D4DAB423DD194F84130202384F88C
:1006C0004130266331E794F841202368292A4FF00E
:1006D0001002DA617FF429AF11F5803F3FF425AFB6
:1006E0009A69960701D500229A629A69D5073FF563
:1006F00058AF9A6942F001029A6152E70220F8BDB0
:1007000023681022DA61636C43F00403636431F000
:1007100080737FF40AAF616C2046FFF7EDFD04E7BC
:1007200001048BD51A6822F400421A60E26B002A99
:1007300080D183E72046FFF759FD2023E56284F846
:1007400041302663F1E631F080737FF4EEAE28E7A6
:1007500094F841201A6822F0FA021A6021222263DA
:100760004CE7013B2385638D013B9BB2638573E7B7
:10077000E1689369022990699368D56836D1C3F31B
:10078000C21383EA104313F006032FD1A16C013189
:10079000A164A16C02297FF4C8AE0821A364D161D1
:1007A000C3E694F8412094F841201A6822F0FE0232
:1007B0001A600022226321E7616C2046FFF79CFD4E
:1007C00094F84130282B7FF4B0AEAAE623681022BB
:1007D000DA61636C43F00403636436F080737FF482
:1007E0005FAF616C2046FFF787FD59E7136823F080
:1007F000B803136099E61023D3619369980701D574
:10080000002393629369D90703D4936943F00103EA
:1008100093612046FFF7EAFC42E729462046FFF7AE
:1008200037FD3DE700E800FE0000FFFF836B9A6B99
:100830000AB100211165DA6B0AB10021116593F844
:100840004120602A05D000221A63002283F840204C
:1008500070470022202183F841101A63002283F898
:1008600040207047016870B4CC072DD5914A1369B8
:10087000926A03F03803102B00F0E180182B00F08F
:10088000D9804368B3F5803F00F00581002B00F06C
:100890005A81B3F5A02F874B1A6800F0678222F4C3
:1008A00080321A601A6822F480221A60824B41F268
:1008B000883C804C1D6804E01A68521B624500F2B7
:1008C0003F8122689603F7D58A0768D4CD0631D5D3
:1008D000784A1369926A03F03803082B00F0C0804D
:1008E000182B00F0B880C369724C002B00F05F81B8
:1008F0002268714B42F0800222601D6804E01A6891
:10090000521B022A00F21C812268D205F7D56B4BDC
:10091000026A1D6841F20303B3EB154FC0F0448235
:100920006368202A23F0F8430CBF43F0804343EA76
:10093000826363600D0713D543695E4C002B00F0A2
:100940001881626F5C4B42F0010262671D6804E02F
:100950001A68521B022A00F2F380626F9207F7D5E1
:100960008C0613D58369534C002B00F0118122684B
:10097000514B42F4805222601D6804E01A68521BF9
:10098000022A00F2DD8022689204F7D5490700F1BF
:100990008880436A002B40F0BC80002059E0454A23
:1009A0001369926A13F038032BD1424AC368126864
:1009B000520701D5002B4BD03E4C226822F0190281
:1009C0001A433D4B22601D6804E01A68521B022A3C
:1009D00000F2B68022685607F7D5384B02691D68C9
:1009E00041F20303B3EB154F6368C0F0028123F4B7
:1009F0007C33402A0CBF43F4003343EA0233636084
:100A000064E7182B00F0F180C3682A4C002B00F03B
:100A1000DD80226822F019021A43274B22601D68EC
:100A200004E01A68521B022A00F28A8022685207E8
:100A3000F7D5D2E702F00302022A7FF422AF1D4B62
:100A40001B689B037FF540AF4368002B7FF43CAFEE
:100A5000012070BC704702F00302012A7FF443AF0B
:100A6000144B1B68DC0502D5C369802BF0D1134CF5
:100A700041F20303026A2468B3EB144FC0F0BF8055
:100A8000202A00F09E810B4C636823F0F84343EA70
:100A9000826363604EE7074A136843F48033136050
:100AA00004E70749044B0A6842F480720A601C6834
:100AB0000CE000BF00440258802C00240010005CB1
:100AC000004802581A68121B642A39D80A68D505EA
:100AD000F8D58268012A00F06E81002A00F04E816C
:100AE000052A9F4A116F00F0748121F001011167FE
:100AF000116F21F0040111671D6841F28834984993
:100B000003E01A68521BA2421AD80A6F9207F8D55E
:100B10003FE793490A6902F03802182A00F0D580AD
:100B20000A68022B8F4B22F080720A606FD018681F
:100B30000A6892017FF531AF1A68121A022AF7D9B2
:100B4000032070BC7047864C41F28835854B226883
:100B500022F480322260226822F4802222601E6801
:100B600003E01A68921BAA42EAD822689203F8D4DA
:100B7000AAE6626F7B4B22F0010262671D6803E008
:100B80001A68521B022ADBD8626F9607F8D4E7E690
:100B90002268744B22F4805222601D6803E01A68B8
:100BA000521B022ACCD822689604F8D4EEE62268BA
:100BB0006C4B22F0800222601D6803E01A68521B11
:100BC000022ABDD82268D605F8D4B3E62268654B60
:100BD00022F0010222601D6803E01A68521B022AFB
:100BE000AED822685607F8D470E694077FF40CAFAD
:100BF000DBE623F0FE4343EA0263636066E6584C9B
:100C0000E36823F07C5343EA0263E36092E61C68E6
:100C100003E01A68121B022A92D80A689501F8D4D8
:100C20008C6A514A2240846A2243C46A42EA04120E
:100C30008A62D0E90D24013A013C5202240492B2A6
:100C400004F4FE042243046B013CC4F30804224371
:100C5000C46B013C240604F0FE4422430A63CA6AC2
:100C600022F00102CA624A6B846C6FF3CF0242EA3F
:100C7000C4024A63CA6A046C22F00C022243384C54
:100C8000CA62CA6A406C22F002020243CA62CA6A9D
:100C900042F48032CA62CA6A42F40032CA62CA6A44
:100CA00042F48022CA62CA6A42F00102CA620A6839
:100CB00042F080720A601968226890013FF56DAEBB
:100CC0001A68521A022AF7D93AE7012B8A6A0D6B81
:100CD0003FF4BEAE02F00303846AA3427FF4B8AED1
:100CE000C2F30512C36A9A427FF4B2AE036BC5F336
:100CF0000802013B9A427FF4ABAE436BC5F3462238
:100D0000013B9A427FF4A4AE836BC5F30642013BDC
:100D10009A427FF49DAEC36BC5F30665013B9D42CD
:100D20007FF496AE4B6B816CC3F3CC0399423FF4D6
:100D300034AE0B480B4BC26A22F00102C2621A6841
:100D400018688242FCD0064A536B6FF3CF0343EA24
:100D5000C1035363D36A43F00103D3621DE600BFAE
:100D600000440258802C00240CFCFFFF42F4802237
:100D70001A601A6842F480321A6097E5194941F204
:100D800088350A6F22F001020A670A6F22F0040216
:100D90000A671C6804E01A68121BAA423FF6D0AE2C
:100DA0000A6F9607F7D4F4E5E36823F07C5343EA2F
:100DB0000263E360BEE50B490A6F42F001020A6775
:100DC0009AE6084A536823F0F84343F0804353609F
:100DD000B0E541F004011167116F41F001011167A5
:100DE0008AE600BF00440258334B30B4996A9C6ACB
:100DF000DD6A14F47C7F5A6BC4F3051036D0C2F35D
:100E0000CC0205F0010501F0030107EE900A05FB95
:100E100002F20129B8EEE77A06EE902AFAEEE96AC4
:100E200002D0022942D019B3DFED247A87EE876A17
:100E30001B6BC3F3080307EE903AF7EE005AF8EE87
:100E4000E77A77EEA67A77EEA57A67EE867A1A4B7E
:100E50001B6BC3F34623013307EE103AF8EEC76A63
:100E600087EEA67AFCEEC77A17EE900A30BC704780
:100E70001A6892061DD51968F7EE005A104A1B6BC6
:100E8000C1F3C101C3F30803CA4007EE903A06EE6E
:100E9000102AF8EEE77AB8EEC66A77EEA66AC6EED2
:100EA000077A36EEA57A67EE877AD0E7DFED057A26
:100EB000BCE7DFED057AB9E7004402580024744A24
:100EC0000090D0030024F44A0024744C344A136880
:100ED00030B423F08063334C1360256803E023684B
:100EE0005B1B022B54D813681B01F8D4936A056866
:100EF00023F47C3343EA053393628368C568013B7E
:100F0000013D5B022D049BB205F4FE052B434568B1
:100F1000013DC5F308052B430569013D2D0605F08C
:100F2000FE452B439363D36A456923F0C0032B43EB
:100F3000D362D36A856923F020032B43D362D36A3B
:100F400023F01003D362D36BC0696FF3CF0343EA7E
:100F5000C003D363D36A43F01003D362D36AD1B121
:100F600001290CBF43F4801343F40013D3620C4AED
:100F7000136843F080631360216803E023685B1A01
:100F8000022B05D813681B01F8D5002030BC704730
:100F9000032030BC704743F40023D362E7E700BF6F
:100FA00000440258802C0024344A136830B423F0E3
:100FB0008053334C1360256803E023685B1B022BCE
:100FC00054D813689B00F8D4936A056823F07C73A7
:100FD00043EA055393628368C568013B013D5B02A8
:100FE0002D049BB205F4FE052B434568013DC5F376
:100FF00008052B430569013D2D0605F0FE452B43F1
:101000001364D36A456923F440632B43D362D36AE4
:10101000856923F400732B43D362D36A23F480736E
:10102000D362536CC0696FF3CF0343EAC0035364C8
:10103000D36A43F48073D362D36AD1B101290CBF60
:1010400043F4000343F08073D3620C4A136843F007
:1010500080531360216803E023685B1A022B05D8D4
:1010600013689B00F8D5002030BC7047032030BCCB
:10107000704743F48003D362E7E700BF004402589F
:10108000802C0024836A1A0710B406D50168846B8B
:101090004A6822F4004222434A60DC0706D5016810
:1010A000C46A4A6822F4003222434A60990706D58E
:1010B0000168046B4A6822F4803222434A605A076E
:1010C00006D50168446B4A6822F4802222434A60B4
:1010D000DC0606D50168C46B8A6822F4805222437C
:1010E0008A60990606D50168046C8A6822F4005269
:1010F00022438A605A060AD50168446C4A68B4F5EE
:10110000801F22F4801242EA04024A600BD01B06C0
:1011100006D50268C16C536823F400230B43536067
:101120005DF8044B70474A68846C22F4C002224385
:101130004A60ECE70022836BA3F85E20704700BF93
:10114000124B41F2883C124A01461B68A2FB032362
:101150005B0A0CFB03F33BB14A6B12F0450F01D065
:10116000920404D5013BF7D14FF0004070474B6B20
:101170005B0707D4486B10F0010014BF0123054B37
:101180008B637047042318468B637047000000246C
:10119000D34D6210C5002000036942681F2B70B454
:1011A00032D9A3F1200520245168AC40214229D036
:1011B0008169087C032838D0087C022801D10020EE
:1011C000087448681F2BC968046906684D68C4F331
:1011D00003244079164931F8100001EB840100F432
:1011E000F0508C68F16821EA0001F1601149085D56
:1011F000295821F00101295011D9A3F12001202300
:101200008B40D36070BC7047202411689C40214201
:10121000F8D08169087C0328CED19460F2E72021C0
:1012200001FA03F370BC93607047D460EAE700BF33
:1012300018C80C0814C90C08D0E907239A423CBF0F
:10124000C1685218D01A7047D0E9092300699A4240
:1012500038BF12180138D31AC01A7047D0E90902F2
:10126000101AB0FA80F04009704700BF016A0346C7
:1012700040694A1C405CD9688A4228BF00221A6231
:10128000704700BF436A826910B4D154436A416B0E
:10129000046901330A68A34228BF00235DF8044BA8
:1012A00042F0800243620A60704700BF436BD86916
:1012B00010F0100002D0102201201A62704700BF07
:1012C0002DE9F047046982B0C3681C4046D08146CE
:1012D00088464FF0004501F1500701F13806B4FA95
:1012E00084F325FA03F21B3BD2431440C9F81020C3
:1012F000B8F1000F5FD0042B2ED8DFE803F052487E
:101300003D320300D8F81030D9F82CA033B19B68D7
:1013100023B11FFA8AF108F108009847D8F828305D
:1013200033B19B6823B11FFA8AF108F12000984776
:10133000D8F8403033B19B6823B11FFA8AF108F125
:1013400038009847D8F8583033B19B6823B11FFA5A
:101350008AF108F150009847002CC0D102B0BDE8D6
:10136000F087D8F8103008F10800D9F834105B681D
:101370009847002CB3D1F1E7D8F8283008F12000C5
:10138000D9F838105B689847002CA8D1E6E7D8F860
:1013900040303046D9F83C105B689847002C9ED10D
:1013A000DCE7D8F858303846D9F840105B689847E1
:1013B000002C94D1D2E7042B07D8DFE803F01903FF
:1013C000140F0A00D9F83C300193019B002C86D100
:1013D000C4E7D9F82C300193019BF7E7D9F83430F2
:1013E0000193019BF2E7D9F838300193019BEDE7B7
:1013F000D9F840300193019BE8E700BF70B5124D6A
:10140000124A2B68A2FB03239B09013BB3F1807FA7
:1014100001D3012070BD4FF0E0220D4900240F28B8
:1014200053614FF0F003064681F823304FF0070375
:1014300094611361EDD801464FF0FF307CF078FCE9
:1014400020466E6070BD00BF00000024D34D6210C6
:1014500000ED00E03749024603688B4233D0183173
:10146000591AB1FA81F1490969BB3348834240D026
:101470001830834240D01830834236D0183083422F
:101480003DD01830834240D0183083422CD000F534
:101490005670834237D029498B4233D018318B4262
:1014A00036D018318B4236D018318B4236D01831B5
:1014B0008B4236D018318B4236D018318B4236D021
:1014C00023F0FF0013E0DBB21D491E48103B10B4AF
:1014D0001D4CA4FB03435DF8044B01EB131393F87D
:1014E0002810C2E91601704716211848D165906589
:1014F000704710211348F9E716211248F6E7062134
:101500001248F3E706211248F0E710210F48EDE7F3
:1015100010210F48EAE716210D48E7E700210D48A2
:10152000E4E706210B48E1E710210A48DEE716212F
:101530000848DBE710000240400002402804024057
:1015400018C80C0800000240ABAAAAAA0400024076
:101550000004024004040240F0B50C461146026843
:101560008646936913F0100C72D04FF0000C1023D4
:1015700038486546D36193699E065FD445B90368D0
:101580005B1AA3423DD893699F06F8D52023D36107
:101590004CF0040C01209369D90552D54FF48071A9
:1015A0005F054CF0010CD16104D54FF480614CF023
:1015B000080CD1619D0504D54FF400734CF0020C6A
:1015C000D3619369990701D5002393629369DB077F
:1015D00003D4936943F001039361536820241E49A7
:1015E00001200B4000215360DEF844308EF840109B
:1015F00043EA0C03CEF844308EF841408EF8421096
:10160000F0BD57689EF842309669DBB2360408D5C3
:101610007E0406D4202B04D0536843F480435360E7
:10162000016893699F06A6D403685B1A192BF8D941
:1016300093694FF0200C01259E069FD5002DA5D063
:10164000A6E75E05B1D49C05B6D40028B9D1F0BD9B
:101650006046A0E7802C002400E800FE2DE9F0475A
:1016600007689A46089EBB6931EA03030CBF012351
:101670000023934220D180460C461546DFF85C904B
:10168000324651464046FFF767FF20BBD9F800308D
:10169000A3EB060CD44507D9BB6934EA03030CBF9E
:1016A00001230023AB420AD0BB6934EA03030CBF19
:1016B00001230023AB42E3D00020BDE8F087D8F837
:1016C0004430202288F840001343C8F8443088F89A
:1016D000412088F842000120BDE8F087802C0024DA
:1016E0000C4A136903F03803102B0DD0182B09D0C6
:1016F00063B913689B060BD513680748C3F3C1038E
:10170000D8407047FFF770BB0448704704487047E3
:1017100001487047004402580090D00300127A003C
:1017200000093D00184A136903F03803102B10B567
:1017300024D0182B09D01BBB13689B0622D5136835
:101740001248C3F3C103D84001E0FFF74DFB0E4937
:101750000F4A8B698969C3F303230E4C01F00F0113
:1017600013440A4493F8301092F8303001F01F020D
:1017700003F01F03D0402060D84010BD0648E6E7C4
:101780000648E4E70148E2E7004402580090D0032D
:1017900018C80C080000002400127A0000093D005F
:1017A0002DE9F843D0E900480646250100F17C8385
:1017B0000027E0050CD5D6F85890B9F1040F06D8EB
:1017C000DFE819F0E00356052505E503E5030127E9
:1017D0003D46A10526D5D6F85C90B9F1800F00F002
:1017E000298500F26686B9F1000F00F0D684B9F1C0
:1017F000400F40F06686914B9B6A03F00303032B76
:1018000000F05F86002106F10800FFF75FFB054648
:10181000002D40F0CA84894A136D23F4E07343EA33
:1018200009031365620526D5D6F8A890B9F5800F8F
:1018300000F00F8500F24986B9F1000F00F097849F
:10184000B9F5001F40F049867C4B9B6A03F0030307
:10185000032B00F04286002106F10800FFF736FB5B
:101860000546002D40F08B84744A936D23F4600389
:1018700043EA09039365230526D5D6F8AC90B9F160
:10188000007F00F0A28400F20186B9F1000F00F0A1
:10189000FD84B9F1807F40F00186684B9B6A03F0BC
:1018A0000303032B00F0FA85002106F10800FFF77F
:1018B0000DFB0546002D40F09884604A936D23F09F
:1018C000E06343EA09039365A0011DD5D6F84C9067
:1018D000B9F1200F00F0AE8300F20F86B9F1000FCE
:1018E00008D0B9F1100F40F00C86544AD36A43F483
:1018F0000033D362002D40F07383504AD36C23F041
:10190000300343EA0903D364E10426D5D6F8609096
:10191000B9F5005F00F06C8400F2E385B9F1000FC7
:1019200000F03084B9F5805F40F0E385434B9B6A5B
:1019300003F00303032B00F0DC85002106F108000F
:10194000FFF7C4FA0546002D40F024843B4A136D8E
:1019500023F4E04343EA09031365A20425D5D6F82E
:101960006490B9F5003F00F0878300F28185B9F1FA
:10197000000F10D0B9F5803F40F084852F4B9B6A53
:1019800003F00303032B00F07D85012106F108001D
:10199000FFF79CFA0546002D40F08184274A136D1D
:1019A00023F4E02343EA09031365630425D5D6F83D
:1019B000B090B9F1005F00F02C8300F22F85B9F1EF
:1019C000000F10D0B9F1805F40F032851B4B9B6A4D
:1019D00003F00303032B00F02B85012106F108001F
:1019E000FFF774FA0546002D40F06684134A936DA4
:1019F00023F0E04343EA0903936520040FD5D6F8AA
:101A00007090B9F1805F00F02482B9F1005F00F0BE
:101A10008085B9F1000F00F0218201273D46E101E8
:101A20001DD5D6F84890B9F1030F00F2B985DFE86B
:101A300019F00C00070034030C0000BF00440258EA
:101A40003E4AD36A43F40033D362002D40F0C6828D
:101A50003A4AD36C23F0030343EA0903D3646202D6
:101A600000F14F82E30731D5D6F87C90B9F1280F09
:101A70002AD8DFE819F00E022900290029002900E0
:101A80002900290029000102290029002900290034
:101A900029002900290048042900290029002900DB
:101AA0002900290029000E02290029002900290007
:101AB0002900290029000E022900290029002900F7
:101AC0002900290029000E0201273D46A00724D540
:101AD000D6F87890B9F1050F00F25485DFE819F0D7
:101AE000130006000204130013001300134B9B6A3B
:101AF00003F00303032B00F04585012106F10800E4
:101B0000FFF7E4F90546002D40F0D0830B4A536DF2
:101B100023F0070343EA09035365610727D5D6F885
:101B20009490B9F1050F00F22985DFE819F016004D
:101B30000900CA0316001600160000BF0044025830
:101B4000B14B9B6A03F00303032B00F017850121BF
:101B500006F10800FFF7BAF90546002D40F0A4830E
:101B6000A94A936D23F0070343EA09039365A2068C
:101B700025D5D6F89090B9F1005F00F09F8200F271
:101B80003C84B9F1000F10D0B9F1805F40F03F8480
:101B90009D4B9B6A03F00303032B00F03884002164
:101BA00006F10800FFF792F90546002D40F0758315
:101BB000954A536D23F0E04343EA090353656306F6
:101BC00025D5D6F89C90B9F5006F00F0888200F218
:101BD0003384B9F1000F10D0B9F5806F40F036842E
:101BE000894B9B6A03F00303032B00F02F84002131
:101BF00006F10800FFF76AF90546002D40F05A8308
:101C0000814A936D23F4E05343EA09039365200668
:101C100025D5D6F8A090B9F5804F00F0778200F274
:101C20001984B9F1000F10D0B9F5005F40F01C84A1
:101C3000754B9B6A03F00303032B00F0158400210E
:101C400006F10800FFF742F90546002D40F0378302
:101C50006D4A936D23F4604343EA090393652107BA
:101C60000CD5D6F88490B9F5805F00F07082664A92
:101C7000536D23F4405343EA09035365E2060CD540
:101C8000D6F89890B9F5807F00F051825E4A936D46
:101C900023F4407343EA09039365230323D5D6F85D
:101CA000A490B9F5803F00F0D681B9F5003F10D07F
:101CB000B9F1000F40F0DD80534B9B6A03F0030342
:101CC000032B00F0D680494606F10800FFF7FEF826
:101CD0000546002D40F0EC824B4A936D23F44033CF
:101CE00043EA0903936560030FD5D6F88890B9F5E8
:101CF000001F00F07D81B9F5401F00F0F880B9F5B4
:101D0000801F00F0EF8001273D46E1031FD5D6F884
:101D10005090B9F1000F00F04681B9F5803F40F0D6
:101D20008580394B9B6A03F00303032B7ED002218D
:101D300006F10800FFF7CAF80546002D40F03B8188
:101D4000314AD36C23F4803343EA0903D364A200FD
:101D500070D4A3035AD43D46E70206D52A4A716FD0
:101D6000136D23F000430B431365E00007D5264AAB
:101D7000D6F8B810136923F480430B431361A10212
:101D800006D5214AF16E136D23F080730B43136562
:101D9000620009D51C4B1A6922F400421A611A69C3
:101DA000D6F8BC100A431A61002C06DA164A716D87
:101DB000D36C23F040530B43D364230207D5124A5C
:101DC000D6F88C10536D23F440030B43536518F081
:101DD000010F40F0028318F0020F40F0DB8218F090
:101DE000040F40F0EA8218F0080F40F0C28218F0A9
:101DF000100F40F0AE8218F0200F40F09982281E9C
:101E000018BF0120BDE8F88300440258D6F880309E
:101E1000B3F5807F00F0D18040F2E68023F4807239
:101E2000B2F5007F00F0CE80012595E70127A200E2
:101E30003D468ED5B24B9B6A03F00303032B06D0BD
:101E4000022106F12800FFF7AFF8002881D0012712
:101E50007FE7AB4AD36A43F40033D362002D40F0EE
:101E6000BB80A74A136D23F0405343EA090313656F
:101E7000D5E501273D4636E7A14B9B6A03F00303F6
:101E8000032B3FF421AE012106F10800FFF71EF8F5
:101E90000546002D40F00682994A536D23F0380321
:101EA00043EA0903536511E6856EB5F5001F00F09E
:101EB000558300F2F782002D00F07A81B5F5801F7E
:101EC00040F0F4828E4B9B6A03F00303032B00F077
:101ED000ED8202210830FEF7F9FF0746002F00F0DF
:101EE0006C8166E4864AD36A43F40033D362002DE2
:101EF00078D1834A536D23F4401343EA09035365B1
:101F000003E7804A8049136843F4807313600868CC
:101F100004E00B681B1A642B00F2F7821368DB05E0
:101F2000F7D5002D40F04F83754BD6F8B420186FCD
:101F3000504010F4407F0FD0186FD3F870C020F4D9
:101F400040704CF4803CC3F870C0D3F870C02CF4DF
:101F5000803CC3F870C01867B2F5807F00F024831E
:101F600002F44073B3F5407F00F0108364490B69BD
:101F700023F47C530B61624BC2F30B02196F0A43CB
:101F80001A676FE55E4AD36A43F40033D3623D4675
:101F9000002D40F04C815A4A136D23F0070343EAA9
:101FA0000903136515E4564AD36A43F40033D36238
:101FB000002D3FF4C5AE2F46C9E65149CA6A42F426
:101FC0000032CA62002D7FF4C7AE4D494A6D22F43B
:101FD000407213434B65BEE62F4620E52F463EE593
:101FE0002F4691E42F4690E6002B7FF41DAFE9E7E2
:101FF000434B9B6A03F00303032B3FF484AE0121A0
:1020000006F12800FEF7D0FF0546002D3FF471AF22
:10201000E8E73B4B9B6A03F00303032B00F00882C5
:10202000012106F12800FEF7BFFF0546002D3FF411
:10203000DDAC41E1324B9B6A03F00303032B00F05C
:102040006082022106F10800FEF740FF0546002DE0
:102050003FF453ACC4E72A4B9B6A03F00303032B02
:102060003FF407AF022106F12800FEF79DFF054669
:10207000002D3FF431AE1BE1214B9B6A03F00303BB
:10208000032B00F0FF81012106F12800FEF78CFFF1
:102090000546002D3FF482AC01E1194B9B6A03F029
:1020A0000303032B00F07C82022106F10800FEF7F7
:1020B0000DFF0546002D3FF4CBAC8FE7104B9B6A1C
:1020C00003F00303032B00F0A281022106F1280094
:1020D000FEF76AFF0546002D3FF46AADDDE0084BD0
:1020E0009B6A03F00303032B00F0B081022106F189
:1020F0002800FEF759FF0546002D3FF481ADD9E0D9
:102100000044025800480258802C0024C24B9B6AAD
:1021100003F00303032B00F0A781022106F128003E
:10212000FEF742FF0546002D3FF492ADC7E0BA4BE3
:102130009B6A03F00303032B07D0022106F128005A
:10214000FEF732FF00283FF4A1AD01279EE5B24B18
:102150009B6A03F00303032B07D0022106F128003A
:10216000FEF722FF00283FF482AD01277FE5AA4A4F
:10217000D36A43F40033D362002D3FF475AB2F468E
:10218000FFF779BBA44AD36A43F40033D362002D2E
:102190003FF4DCAB2F46FFF7E0BB9F4AD36A43F422
:1021A0000033D362002D3FF436AB2F46FFF73ABB26
:1021B000994AD36A43F40033D362974A136D23F4E8
:1021C00040132B431365FFF7F3BA934B9B6A03F05D
:1021D0000303032B00F06281002106F12800FEF7C3
:1021E000E3FE0546002D3FF468AB2F46FFF76CBBBE
:1021F000894B9B6A03F00303032B00F07A810021D3
:1022000006F12800FEF7D0FE0546FFF79CBB824B87
:102210009B6A03F00303032B3FF4D9AA002106F1C4
:102220002800FEF7C1FE0546002D3FF4B4AE2F4650
:10223000FFF7CFBA784B9B6A03F00303032B00F040
:102240004081002106F12800FEF7AEFE0546FFF7AB
:10225000DFBA714B9B6A03F00303032B00F03D814F
:10226000002106F12800FEF79FFE0546FFF7F9BAA8
:10227000694B9B6A03F00303032B3FF4A8AA0021D8
:1022800006F10800FEF722FE054681E6624AD36A9F
:1022900043F40033D362FFF70DBB2F468FE42F4684
:1022A000FFF783BB2F4611E42F4660E42F4634E44A
:1022B0002F4618E52F46AAE42F46FFF79EBB2F4670
:1022C000CDE4554B9B6A03F00303032B00F05681CA
:1022D000012106F12800FEF767FE0546002D3FF4B8
:1022E0003FACE1E74C4B9B6A03F00303032B00F088
:1022F0004981012106F12800FEF756FE0546002D12
:102300003FF404ACD2E7444B9B6A03F00303032B76
:102310003FF4DAAB012106F12800FEF745FE054641
:10232000002D3FF4B9ADBDE7012518F0200F0DD009
:10233000394B9B6A03F00303032B07D0022106F1FC
:102340002800FEF731FE00283FF459AD0120BDE81A
:10235000F883314B9B6A03F00303032BE4D0012184
:1023600006F12800FEF720FE00283FF444AD0546A4
:10237000DBE7294B9B6A03F00303032B00F0DE80AD
:10238000002106F12800FEF70FFE00283FF42FADD4
:102390000546D4E0204B9B6A03F00303032B00F0B7
:1023A000CB80012106F10800FEF790FD002818BF40
:1023B000054618F0040F3FF416AD174B9B6A03F067
:1023C0000303032B00F0C880022106F10800FEF78A
:1023D0007DFD002818BF054605E50F4B9B6A03F0FD
:1023E0000303032B00F0A680002106F10800FEF78E
:1023F0006DFD002818BF0546EDE429F08053B3F1C8
:10240000804F3FF4D2ABB9F1405F3FF4CEAB012730
:102410003D46FFF7D4BB00BF0044025829F080536B
:10242000B3F1804F3FF4DFAAB9F1405F3FF4DBAA7C
:1024300001273D46FFF7E1BA29F48063B3F5805FD9
:102440003FF4DBABB9F5406F3FF4D7AB01273D4616
:10245000FFF7DDBB29F40053B3F5004F3FF4F5ABB4
:10246000B9F5C04F3FF4F1AB01273D46FFF7F7BB8D
:1024700029F48033B3F5802F3FF48DAAB9F5403F9E
:102480003FF489AA01273D46FFF78FBAB9F1407F93
:102490003FF410AAB9F1806F3FF40CAA01273D4622
:1024A000FFF712BAB5F5401F3FF487AE0127FFF7DB
:1024B00080B9B9F1C00F3FF4ABA9B9F5807F3FF403
:1024C000A7A901273D46FFF7ADB9B9F5C00F3FF405
:1024D000C8A9B9F5000F3FF4C4A901273D46FFF78D
:1024E000CAB9B9F5405F3FF42EAAB9F5804F3FF461
:1024F0002AAA01273D46FFF730BAB9F1300F3FF461
:10250000F9A901273D46FFF7FFB903273D46FFF72D
:10251000A9BA2E4B9B6A03F00303032B3FF47DAA59
:10252000012106F10800FEF7D1FC0546002D3FF41D
:1025300098AC51E501254EE4012550E4012518F041
:10254000100F08F010037FF404AF08F0200853EADE
:1025500008033FF4FBAEEBE6012544E41B4B9B6A0A
:1025600003F00303032BA1D002212830FEF71CFD4A
:102570000746002F3FF421AEFFF71BB901273D4668
:10258000FFF7F5BA01273D46FFF7C7BA0F48104BD2
:10259000016903EA121321F47C510B430361EAE45D
:1025A00001273D46FFF75BBAD1F800E041F2883CD5
:1025B000064804E00B68A3EB0E036345A5D8036F40
:1025C0009B07F7D5D2E42F46FFF74CBA00440258D8
:1025D000CFFFFF00474A70B4946A956AD66A15F433
:1025E0007C3FC5F30533D16B5BD0C1F3CC01C6F39F
:1025F000001604F0030407EE903A06FB01F1012CEB
:10260000B8EEE77A06EE901AFAEEE96A03D0022CE9
:102610006AD0002C4AD0DFED387A87EE876A936B58
:10262000C3F3080307EE903AF7EE005AF8EEE77AA4
:1026300077EEA67A77EEA57A67EE867A2D4AB7EE20
:10264000006A936BC3F3462307EE103AB8EEC77ADD
:1026500070BC37EE067AC7EE876AFCEEE66AC0ED1C
:10266000006A936BC3F3064307EE103AB8EEC77ADD
:1026700037EE067AC7EE876AFCEEE66AC0ED016ABD
:10268000936BC3F3066306EE903AF8EEE66A76EED5
:10269000866A87EEA67AFCEEC77A17EE903A8360D8
:1026A000704770BCC0E900338360704713689B06B5
:1026B0001DD51468F7EE005A936B1049C4F3C1029C
:1026C000C3F30803D14007EE903A06EE101AF8EE75
:1026D000E77AB8EEC66A77EEA66AC6EE077A36EEF5
:1026E000A57A67EE877AA9E7DFED057A95E7DFED52
:1026F000057A92E7004402580024744A0090D003FF
:102700000024F44A0024744C474A70B4946A956AD1
:10271000D66A15F07C7FC5F30553516C5BD0C1F3CD
:10272000CC01C6F3002604F0030407EE903A06FB42
:1027300001F1012CB8EEE77A06EE901AFAEEE96A9A
:1027400003D0022C6AD0002C4AD0DFED387A87EE15
:10275000876A136CC3F3080307EE903AF7EE005A4A
:10276000F8EEE77A77EEA67A77EEA57A67EE867AC4
:102770002D4AB7EE006A136CC3F3462307EE103AF6
:10278000B8EEC77A70BC37EE067AC7EE876AFCEE01
:10279000E66AC0ED006A136CC3F3064307EE103A15
:1027A000B8EEC77A37EE067AC7EE876AFCEEE66ABD
:1027B000C0ED016A136CC3F3066306EE903AF8EEBF
:1027C000E66A76EE866A87EEA67AFCEEC77A17EEA0
:1027D000903A8360704770BCC0E9003383607047F3
:1027E00013689B061DD51468F7EE005A136C104948
:1027F000C4F3C102C3F30803D14007EE903A06EEDA
:10280000101AF8EEE77AB8EEC66A77EEA66AC6EE58
:10281000077A36EEA57A67EE877AA9E7DFED057AC3
:1028200095E7DFED057A92E7004402580024744AE8
:102830000090D0030024F44A0024744C0269836899
:1028400070B5044605681343C069626986B029689B
:102850001343AC4A03430A40616A1343E2682B60A6
:102860006B6823F440531343A2696B60A64B9D42EF
:1028700000F06681236AAE681A43A44B33401A43C2
:10288000AA60EB6A23F00F030B43EB62A04B9D425F
:1028900028D0A04B9D421AD09F4B9D4217D09F4BF2
:1028A0009D4214D09E4B9D4211D09E4B9D4219D00B
:1028B0009D4B9D420BD09D4B9D4208D00120002393
:1028C0004FF001126367A266A36706B070BD984B14
:1028D0005B6D03F00703052BF0D8DFE803F09F7F63
:1028E0008A925F79924B5B6D03F03803282BE5D811
:1028F00001A252F823F000BFA52A0408BD2804084D
:10290000BD280408BD280408BD280408BD28040803
:10291000BD280408BD280408DD290408BD280408D2
:10292000BD280408BD280408BD280408BD280408E3
:10293000BD280408BD280408F3290408BD2804089C
:10294000BD280408BD280408BD280408BD280408C3
:10295000BD280408BD280408032A0408BD2804086B
:10296000BD280408BD280408BD280408BD280408A3
:10297000BD280408BD2804089D290408BD280408B2
:10298000BD280408BD280408BD280408BD28040883
:10299000BD280408BD280408D1290408B0F5004F5B
:1029A000644853D0644B626803EB4103B3F8403092
:1029B000B0FBF3F000EB52004FF6EF73B0FBF2F018
:1029C000A0F110029A423FF679AFE860002076E766
:1029D000B0F5004F3AD04FF40040E3E7B0F5004FB8
:1029E0002DD003A8FFF7F6FD04980028EED0616A09
:1029F000D8E7B0F5004F71D06846FFF785FE019823
:102A0000F3E7B0F5004F5ED0494B1A68920639D50E
:102A10001B684A48C3F3C103D840C3E7B0F5004F71
:102A200032D0FEF77FFE424A434BD269C2F3021214
:102A3000134493F8303003F01F03D840D5E703A8C0
:102A4000FFF7C8FD04980028C0D0616A3A4B62685D
:102A500003EB41034FF6EF71B3F84030B0FBF3F0F6
:102A6000530803EB4003B3FBF2F3A3F110028A42D5
:102A70003FF624AF23F00F02C3F3420392B2134395
:102A8000EB60A3E72D488DE7FEF74CFE284A2A4B62
:102A9000D269C2F30212134493F8303003F01F03DB
:102AA000D840D0E7B0F5004F1DD0FEF73BFE204ADE
:102AB000214BD269C2F30222134493F8303003F061
:102AC0001F03D84091E71A4B1A68900640F1A58081
:102AD0001B681A48C3F3C103D840B7E76846FFF73D
:102AE00013FE0198AFE7FEF71DFE114A124BD269A3
:102AF000C2F30222134493F8303003F01F03D8408E
:102B0000A1E700BFF369FFCF000C0058FFF4FF11ED
:102B1000001001400044004000480040004C0040CC
:102B2000005000400014014000780040007C00404C
:102B30000044025800093D0018C80C080090D0035A
:102B4000A868374B03401343364AAB60EB6A23F067
:102B50000F030B43EB62936D03F00703052B3FF666
:102B6000ADAEDFE803F0413C3303524F2D4B1A6802
:102B700095064CD42C482D4B656803EB410305EBBF
:102B80004501B3F84020B0FBF2F399423FF696AE10
:102B9000B3EB053F3FF692AE0023194684F0BEFD2D
:102BA0002A460902030241EA1061680818184FF02A
:102BB000000341F1000184F0B1FD1D4BA0F540720E
:102BC0009A423FF67BAE1B4BD860FFE66846FFF7A4
:102BD0009BFD019800283FF4F9AE616ACBE703A89A
:102BE000FFF7F8FC0498F5E7FEF79CFD0D4A0F4B44
:102BF000126AC2F30212134493F8303003F01F0339
:102C0000D840E7E74FF40040B5E70B48B3E71B684F
:102C10000548C3F3C103D840ADE7034816E700BF3A
:102C2000FFF4FF11004402580090D00318C80C08AC
:102C3000FFFC0F00000C005800093D00474A70B42B
:102C4000946A956AD66A15F47C7FC5F30513516BB7
:102C50005BD0C1F3CC0106F0010604F0030407EEDB
:102C6000903A06FB01F1012CB8EEE77A06EE901AD5
:102C7000FAEEE96A4ED0022C6DD0002C4DD0DFED7B
:102C8000387A87EE876A136BC3F3080307EE903A2E
:102C9000F7EE005AF8EEE77A77EEA67A77EEA57AA5
:102CA00067EE867A2D4AB7EE006A136BC3F34623AC
:102CB00007EE103AB8EEC77A70BC37EE067AC7EE68
:102CC000876AFCEEE66AC0ED006A136BC3F3064345
:102CD00007EE103AB8EEC77A37EE067AC7EE876A83
:102CE000FCEEE66AC0ED016A136BC3F3066306EE01
:102CF000903AF8EEE66A76EE866A87EEA67AFCEE01
:102D0000C77A17EE903A8360704770BCC0E9003311
:102D100083607047DFED137AB3E713689B06AED587
:102D20001468F7EE005A136B0F49C4F3C102C3F3E2
:102D30000803D14007EE903A06EE101AF8EEE77A53
:102D4000B8EEC66A77EEA66AC6EE077A36EEA57AC0
:102D500067EE877AA6E7DFED057A92E7004402582E
:102D60000024744C0024744A0090D0030024F44AD8
:102D7000F0B5354AB0F1804F344DA0EB0202036844
:102D8000A0EB050E4C69B2FA82F28F68BEFA8EFE95
:102D90000E684FEA52124FEA5E1E1FD0F2B9DFF8FA
:102DA000B8C0604537D00CF5806C604533D00CF569
:102DB000806C604512D0BEF1000F0FD1244D254A22
:102DC000904218BFA8422AD002F58062904226D0D5
:102DD00023F08003C76286621C4314E04D6823F031
:102DE0007003D1F80CC02B43C762866223F4407392
:102DF00043EA0C0323F080031C4312B9BEF1000F19
:102E000016D00B6903630368012243F004030360D7
:102E100042610460F0BD23F070034A681343CA683E
:102E200023F44073C7621343866223F080031C437C
:102E3000074A084B984218BF9042E2D003F58063DE
:102E40009842DED0DFE700BF0000014000040140EF
:102E5000004001400044014000040040026810B4FA
:102E600052E8003F23F4907342E800310029F7D183
:102E7000144C02F1080353E8003F234002F1080C10
:102E80004CE800310029F4D1C36E012B08D0002397
:102E900020225DF8044BC0F88C204367C36670475E
:102EA00052E8003F23F0100342E800310029EED041
:102EB00052E8003F23F0100342E800310029EFD12F
:102EC000E5E700BFFEFFFFEF436BDA69F0B5970659
:102ED00083B0044642D5586AE36AC0B2002B00F0C2
:102EE0009580216B9847636B1A681D4622F48072A7
:102EF0001A609A6822F001029A609A6942F0080208
:102F00009A61DA69D6072DD4DA69900701D50222D1
:102F10001A62DA69510701D504221A62DA691207C6
:102F200001D508221A62DA69170612D5D4F8BC2036
:102F3000212A0ED0D4E909128A4273D0A169895C92
:102F40000132C9B299622169B2FBF1F001FB102292
:102F5000A262DA69560608D403B0F0BDDA691D46EC
:102F6000D607D1D501221A62CEE7DA6940F60F0CF6
:102F70001E6804F1340012EA0C0F996836D0B24F83
:102F80000F4040F0BB80DFF8CCC216EA0C0F40F0D7
:102F90006381D4F8A050012D4CD0D50202D54F0248
:102FA00000F16781150606D501F4000106F08005E1
:102FB0000D4340F043815106CED57206CCD553E87F
:102FC000002F22F0400243E8002141B1626B52E839
:102FD000003F23F0400342E800310029F7D12022CE
:102FE0000023C4F8BC20C4F8AC30B5E79506D0D5B2
:102FF00006F0200501F080573D43CAD0D4F8A83030
:10300000002BA9D003B0BDE8F0401847E36962691E
:10301000D054E369E2680133B3FBF2F102FB1133F0
:10302000E36160E70022A4F88A201A6822F0800297
:103030001A608EE7D706B0D5F506AED51022B4F8E3
:1030400090501A629A68570640F11D81D4F8B40076
:1030500001684A6892B2002A00F05081AA4280F0CA
:103060004D81C169A4F89220B1F5807F40D053E82A
:10307000002F22F4807243E8002141B1626B52E8D4
:10308000001F21F4807142E80015002DF7D103F1F3
:10309000080252E8002F22F0010203F1080545E87A
:1030A00000210029F3D103F1080252E8002F22F099
:1030B000400203F1080545E800210029F3D1202250
:1030C000C4F8C020C4F8A01053E8002F22F010026A
:1030D00043E80026002EF7D15C490D6840B190F816
:1030E0003530022B00F01381802380F83460436573
:1030F0000223C4F8A430B4F892302DE712F0010F87
:103100000CD016F4807F09D04FF0010CC3F820C01A
:10311000D4F8C4C04CF0010CC4F8C4C012F0020FC3
:103120007BD112F0040F0CD011F0010F09D04FF039
:10313000040CC3F820C0D4F8C4C04CF0020CC4F88E
:10314000C4C012F0080F0CD006F0200C5CEA070C8B
:1031500007D008271F62D4F8C47047F00807C4F8E6
:10316000C47017050AD5770108D54FF400671F62B0
:10317000D4F8C43043F02003C4F8C430D4F8C430C9
:10318000002B3FF4E9AE92060CD506F0200601F0C4
:1031900080510E4306D0D4F8A8301BB10190984757
:1031A000656B0198D4F8C420AB6802F0280203F0E4
:1031B0004003134361D0FFF751FEAB685B067FF518
:1031C000CBAE05F1080353E8003F23F0400305F1BF
:1031D000080141E8003262B1626B02F1080353E872
:1031E000003F23F0400302F1080040E800310029CD
:1031F000F3D1D4F8B40000283FF4AEAE90F83520F7
:10320000134B022A03653BD1FCF730FF00283FF443
:10321000A3AED4F8B400036DF4E611F0010F90D022
:103220004FF0020C12F0040FC3F820C0D4F8C4C051
:103230004CF0040CC4F8C4C083D078E7D4F8AC30A8
:10324000002B7FF4DFAE87E601000010802C002405
:10325000351104082001000412F0010F3FF471AF92
:1032600016F4807F7FF450AF12F0020F7FF469AF45
:1032700057E74FF480121A626EE6C4F8C4306BE66A
:1032800080224265BEE6B4F89220B4F8921092B261
:1032900089B2AA423FF460AE00293FF45DAE53E824
:1032A000002F22F4907243E8002141B1626B52E892
:1032B000001F21F4907142E800100028F7D19548D2
:1032C00003F1080252E8002F024003F1080545E827
:1032D00000210029F4D12022C4F8A810C4F8C0208D
:1032E000C4F8A01053E8002F22F0100243E8002198
:1032F0000029F7D10223C4F8A4302DE6AA427FF4B6
:103300002BAEC369B3F5807F7FF426AEF2E7036886
:10331000814A824E824FB34218BF934206F118068B
:103320000CBF01220022B34208BF42F0010218364E
:10333000B34208BF42F001021836B34208BF42F060
:1033400001021836B34208BF42F0010206F5567674
:10335000B34208BF42F001021836B34208BF42F040
:1033600001021836B34208BF42F001021836B342D8
:1033700008BF42F001021836B34208BF42F0010212
:103380001836B34208BF42F001021836B34208BFF4
:1033900042F00102A6F59266BB4218BFB34207F5A0
:1033A00092670CBF01260026BB4208BF42F0010213
:1033B00056EA020779D0D3F800C02CF01E0CC3F8EF
:1033C00000C0D3F814C02CF0800CC3F814C0D0F89F
:1033D00060C076BBD0F860C0DCF8006026F4807670
:1033E000CCF800601A6822F001021A6003E00A6853
:1033F000521B052A24D81A68D607F8D4D0E91651EA
:1034000001F01F012FB33F238B40AB60C36ED0E9A7
:103410001921516033B11A68016F22F480721A6069
:10342000436F4B600122002380F8352080F8343050
:103430005EE6DCF8002022F48072CCF80020D1E7B0
:10344000202103220023416580F8343080F83520A4
:103450004EE6344A344EB34218BF934206F1140686
:103460000CBF01220022B34208BF42F00102143611
:10347000B34208BF42F001021436B34208BF42F023
:1034800001021436B34208BF42F00102012606FAD7
:1034900001F1696025498B4208BF42F00102002A10
:1034A000B4D1234A9342B1D0BCE71E4EDFF878C0B6
:1034B000634518BFB3420CF1140C0CBF0126002663
:1034C000634508BF46F001060CF1140C634508BFC4
:1034D00046F001060CF1140C634508BF46F00106E6
:1034E0000CF1140C634508BF46F00106D3F800C088
:1034F0002CF00E0CC3F800C0DFF830C0634508BFE5
:1035000046F00106002E7FF465AF094EB3423FF44A
:1035100061AF67E7FEFFFFEF400002405800024046
:1035200028000240085402581C5402588054025883
:10353000945402584B4B10B41B684B4CA4FB0343F0
:103540005B0A03FB02F25AB18446531E4748DCF87B
:103550003420013B024201D0920406D55C1CF6D116
:103560004FF000405DF8044B7047DCF834305C07E6
:1035700041D4DCF83430D80709D43D4BCCF838308E
:10358000DCF81030DBB2994205D00120EAE70123D4
:10359000CCF83830F9E7DCF8143036481840002809
:1035A000E0D0002B2CDB5A002DD49C002DD4D90068
:1035B0002DD41A012ED45C012FD4D90130D41A0293
:1035C00031D45C0232D499023CD4DA0237D45C03A1
:1035D00032D499032DD4DA0340D41C043BD45904CB
:1035E00036D49A0431D413F0080F0CBF4FF4803056
:1035F0004FF40000B6E704231846CCF83830B1E7A2
:103600004FF00070AEE74020ACE78020AAE74FF40F
:103610008070A7E74FF40070A4E74FF48060A1E743
:103620004FF400609EE74FF480509BE74FF400504A
:1036300098E74FF4802095E74FF4003092E74FF47D
:1036400000408FE74FF480408CE74FF4800089E71B
:103650004FF4001086E74FF4801083E74FF400200A
:1036600080E700BF00000024D34D62104500200019
:10367000C500200008E0FFFD82B00023019302E0B6
:103680000369002B09DB019B01330193019BB3F11B
:10369000706FF5D9032002B070478901002341F013
:1036A00020010193016103E0036913F0200307D0B7
:1036B000019B01330193019BB3F1706FF4D9E9E7EA
:1036C000184602B0704700BF82B00023019302E0A9
:1036D0000369002B09DB019B01330193019BB3F1CB
:1036E000706FF5D9032002B07047002210230192B9
:1036F000036103E0036913F0100307D0019B01335A
:103700000193019BB3F1706FF4D9EBE7184602B057
:10371000704700BF82B00023019302E00369002BD1
:1037200009DB019B01330193019BB3F1706FF5D964
:10373000032002B0704700230193036943F00103A3
:10374000036103E0036913F0010307D0019B013318
:103750000193019BB3F1706FF4D9E9E71846E8E7EC
:103760002DE9F843056807460C46C5F31009B9F181
:10377000000F35D1844B4FF6FF72B3F8803093427F
:103780004FD0002B4DD0814A02EA432808F100684F
:10379000454534BF4FF001084FF002087C4B9D4275
:1037A00006D903F500339D4200F2C4804FF00109B1
:1037B000784E337E012B0FD00123B8F1010F337601
:1037C0004FF00003F36132D002207AF05DFA002856
:1037D00000F09180002333764FF0FF30BDE8F8838E
:1037E0006C4E337E012B49D00123337605F17843AB
:1037F000B3F5801F46D3A5F10163B3F5801F3DD219
:1038000000230220F3617AF03FFA00286DD1624A6A
:103810004FF00208D2F80C3143EA0803C2F80C3129
:103820003DE0B5F1016F63D3052011F0F5FE404690
:103830007AF02AFA0028CDD14046DFF85C81D8F82A
:103840000C3023F4E663C8F80C30D8F80C3043EAA7
:10385000092343F0A403C8F80C307AF015FAD8F81D
:103860000C204E4B1340C8F80C300028B2D105F1A3
:1038700078430122B3F5801F327603D36FF0010045
:10388000BDE8F88300230120F3617AF0FDF960BB05
:10389000414A4FF00108D36843F00203D360BFF3FD
:1038A0006F8FBFF34F8F04F1200254F8043B944212
:1038B00045F8043BF9D1BFF36F8FBFF34F8F4046FC
:1038C0007AF0E2F9B8F1010F334A2ED0D2F80C3178
:1038D00023F00203C2F80C31002333760028CDD147
:1038E0003B6820333B60BDE8F88300233376C5E7AF
:1038F0004FF0010852E7DFF8A0800220D8F80C3121
:1039000023F4E663C8F80C31D8F80C3143EA0923F4
:1039100043F0A403C8F80C317AF0B6F9D8F80C21BA
:103920001E4B1340C8F80C319FE7D36823F0020305
:10393000D360D1E703F500339D4211D903F500337D
:103940009D4210D903F500339D4206D903F500339B
:103950009D420BD84FF005092AE74FF0040927E7ED
:103960004FF0020924E74FF0030921E703F5003384
:103970009D4206D9B5F1016FBFF456AF4FF007096C
:1039800016E74FF0060913E700E8F11F00FE1F00DD
:10399000FFFF0108802C002400200052FBF8FFFFED
:1039A0000148FCF75FBD00BFA42C0024074810B4F9
:1039B000436A846D99691A6824B1234624305DF8FE
:1039C000044B18475DF8044B704700BF802C00245F
:1039D0000148FCF747BD00BFFC2C0024074810B489
:1039E000C36FD0F8B04099691A6824B123467C307F
:1039F0005DF8044B18475DF8044B7047802C002499
:103A00000148FCF72FBD00BF542D0024084810B416
:103A1000D0F8D430D0F8084199691A6824B1234607
:103A2000D4305DF8044B18475DF8044B704700BF75
:103A3000802C00242DE9F04FDFF8409300EB400587
:103A400083B0430009EB85050093AB680193002B1D
:103A500000F051818046E88979F004FF287B0EF060
:103A60005BF90446687B0EF057F908F1010307463D
:103A7000DBB2002C00F0648140F60C12A1882372A6
:103A8000E2802268002800F04F81037240F60C2388
:103A9000C38091613B68BA889A611121204609264A
:103AA0000EF0F6F8112138460EF0F2F86525002CDC
:103AB00000F024812268A38811690B4200F01E8166
:103AC0001B04936110F04EFF05468B4610F04AFF31
:103AD000401B61EB0B01052871F10001F6D314B115
:103AE0002368A2889A6110F03DFF05468B4610F0CE
:103AF00039FF401B61EB0B01052871F10001F6D382
:103B0000013ED3D11CB1A38822681B04936110F03D
:103B100029FF05460E4610F025FF401B61EB06010C
:103B2000052871F10001F6D31FB1BB883A681B0468
:103B3000936110F017FF05460E4610F013FF401B6F
:103B400061EB0601052871F10001F6D314B1236879
:103B5000A2889A6110F006FF05460E4610F002FF9B
:103B6000401B61EB0601052871F10001F6D317B186
:103B70003B68BA889A61009B20463E21434409EB8A
:103B80008303DC7C22460EF0A5F8224638463E210F
:103B90000EF0A0F8734C5823019A03FB08435A62B5
:103BA000714B9A4200F0BB80FDF7BCFD6F4BDA69A8
:103BB000C2F302126E4B134493F8303003F01F032C
:103BC000D840009B434409EB83031B7C022B00F08D
:103BD000B280032B00F0AA80012B14BF4FF4C871F0
:103BE0004FF4487179F0D4FB03465822002102FBC0
:103BF0000842D1629362C2E90D11C2E9101101219C
:103C0000116392F8651001F0FF00002900F0A08018
:103C1000582123F0706224264FF4004701FB08412D
:103C200054484B6A81F865601D6825F001051D60E8
:103C30001A619A6822F400429A609F605A6822F4DE
:103C400000625A605A681043CA6B58601202D86802
:103C500020F40040D860DA6000221A60186840F052
:103C60000100186020208A6681F865004A6581F8A5
:103C7000662091F865002028C5B217D191F864003C
:103C8000012813D081F86560186820F001001860E1
:103C9000186820F48050186018681860186840F0A0
:103CA0000100186081F8655081F86420009B0221B2
:103CB0000126314F434409EB830999F812502846F5
:103CC0007AF036F805F01F036A0999F8115006FAE0
:103CD00003F30221284647F822307AF029F85823C6
:103CE00003FB084405F01F036D0906FA03F347F8C8
:103CF000253084F8206003B0BDE8F08F013D2AD064
:103D000010F030FE83468A4610F02CFEB0EB0B001C
:103D100061EB0A01052871F10001F5D3C7E6FDF753
:103D200001FD124B1A6A43E79161B6E6C82179F0AA
:103D30002FFB034659E7642179F02AFB034654E739
:103D400000283FF4AAAE037240F60C23C380A1E61C
:103D500082F864005CE7002C3FF4B4AEA3882268CC
:103D6000AEE600BF802C0024001C0058004402581E
:103D700018C80C080080000200E100E000000024E8
:103D80002DE9F04F441C85B017469DF83C202CD0FF
:103D90005824DFF890831E46054600FB04F408EB28
:103DA000040393F82090B9F1000F1ED04444490059
:103DB000FF2F04F12404039100D0E6B9002A40F05B
:103DC000C180582303FB058393F86520202A03D183
:103DD000AEB94FF400729A66B8F82831284601331C
:103DE0009BB2A8F82831FFF725FE4FF0000948469E
:103DF00005B0BDE8F08F93F86530202BECD14FF083
:103E0000580A0AFB058A9AF86430012BE4D0012293
:103E1000D8F800B019234FF400418AF864202046F6
:103E2000CDF800B0FDF71AFC0028D5D10E9BDAF8CA
:103E30002410CAF848302123B44A8AF86530402358
:103E4000CAF858008AF86630CAF868002046AAF80E
:103E50004E604B681340039A1343AD4A1A434A60BD
:103E6000594679F0E3FE0246002840F0F380DAF884
:103E70002430802120469F620A23CDF800B0FDF750
:103E8000EDFB002840F0E680BAF84E309BB2FF2BE5
:103E900040F20C81DAF82410FF239E48AAF84C3037
:103EA0004B689D4A0340039803431A434A605826CF
:103EB000DDF80CA05F46039506FB058605E0B6F825
:103EC0004E309BB2002B00F006813946204679F037
:103ED000ADFE002840F0E880B16C756A11F8012B46
:103EE000B6F84C30AA62B164013BB6F84E109BB2F2
:103EF0000139A6F84C3089B2A6F84E10B6F84E102B
:103F000089B2002BDBD10029D9D002460A238021B7
:103F100020460097FDF7A2FBFF22002840F0C48056
:103F2000B6F84E309BB2934240F29B80716AA6F87D
:103F30004C204B68774A1340774A43EA0A031A43F6
:103F40004A60BCE74FF0580A0AFB058A9AF86530C8
:103F5000202B7FF441AF9AF86430012B3FF43CAF43
:103F60000122D8F8007019234FF400418AF8642028
:103F700020460097FDF772FB00287FF42DAF0E9BC3
:103F8000CAF85800CAF8483021238AF8653010234F
:103F90008AF86630CAF86800AAF84E60BAF84E305F
:103FA0009BB2FF2B00F2C080BAF84E309BB2AAF849
:103FB0004C30002B40F0E980DAF8241053484B686D
:103FC000564A0340039803431A434A605826AA46B8
:103FD00006FB0586B6F84E3039469BB2002B00F042
:103FE000CC80204679F022FE002872D1B16C756A2F
:103FF00011F8012BB6F84C30AA62B164013BB6F857
:104000004E109BB20139A6F84C3089B2A6F84E107A
:10401000B6F84E1089B2002BDCD10029DAD0024666
:104020000A23802120460097FDF718FBFF22002875
:104030004FD1B6F84E309BB2934223D9716AA6F89D
:104040004C204B68334A1340039A1343324A1A43B5
:104050004A60BFE75823002203FB058383F86420EE
:10406000BAE6B6F84E30726A9BB22A485168A6F892
:104070004C30DBB201404AEA03430B4343F0007388
:1040800053601CE7B6F84E30716A9BB2039A214820
:10409000A6F84C30DBB242EA03434A6802401343BD
:1040A00043F000734B6095E7039D95E6BAF84E30F8
:1040B000DAF824109BB2039A1648AAF84C30DBB207
:1040C00042EA03434A680240134343F000734B60E3
:1040D000EDE6554680E639462046039D79F078FDA9
:1040E00000287FF479AE736A20210D4CD9615A689B
:1040F00022405A605823002286F8651003FB05838E
:1041000086F8660083F8642071E600BF009800FC22
:1041100000200101009C00FC0000FF0100200002C3
:1041200000E800FE802C0024FF234FF47F00FE22D5
:104130004FF08076AAF84C30039BDDF838E01E4340
:1041400058231EF801AB03FB0583DFF850C0596A02
:10415000C1F828A0A3F84C20B3F84E20C3F848E0DB
:10416000013A92B2A3F84E204B6803EA0C033343A2
:10417000034343F400534B6028E72046554679F04B
:1041800027FD00287FF428AEADE7013B4FF0007615
:104190009AB2501CC0B20004CEE700BF009800FCE9
:1041A0002DE9F04F441C85B099469DF83C3000F055
:1041B00096805825C14C064600FB05F504EB050B1F
:1041C0009BF820A0BAF1000F00F089802544FF2A57
:1041D00090464FEA410705F1240540F08680002B08
:1041E00000F083809BF86530202B6FD19BF8643002
:1041F000012B6BD00122D4F8008019234FF4004129
:104200008BF864202846CDF80080FDF727FA0028B7
:104210005CD10E9BCBF85800CBF8483022238BF8AA
:10422000653010238BF86630CBF86800ABF84E9001
:10423000BBF84E309BB2FF2B00F21081BBF84E3022
:10424000DBF824109BB29E484A68ABF84C30DBB2D6
:10425000024047EA034313439A4A1A434A604FF025
:10426000580909FB0649B9F84E309BB2002B00F003
:104270008081D9F824309A69520700F12D81424695
:104280000A212846FDF768F9002840F0F480D9F8A3
:1042900024309A69910640F1F8809A699A6912F07F
:1042A000100200F0F08010222021874DDA610422F4
:1042B000C9F86820D9615A682A405A6089F865109F
:1042C00089F8640089F8660022689B69B4F828318F
:1042D000304601339BB2A4F82831FFF7ABFB4FF017
:1042E000000A504605B0BDE8F08F4FF0580B0BFBAD
:1042F000064B9BF86530202BE8D10E9B002B00F07D
:10430000A8809BF86430012BE0D0236801224FF491
:10431000004128468BF86420039300931923FDF78E
:104320009DF90028D2D12223DBF824100E9A8BF8B5
:1043300065304023CBF848208BF86630CBF8680016
:10434000ABF84E90DFF878914A68CBF858002846D1
:1043500002EA09023A4342F490324A60039979F042
:1043600065FC0246002840F030814023284619466B
:10437000DBF82430C3F82880039B00930A23FDF761
:104380006DF9002840F02181BBF84E309BB2FF2B25
:1043900040F22281DBF82410FF234C4AABF84C306A
:1043A0004B6803EA09033B431A434A604FF058083D
:1043B000B946039F08FB064805E0B8F84E309BB2AB
:1043C000002B00F01B810A230022042128460097BD
:1043D000FDF744F900287FF479AFD8F82430596A02
:1043E000D8F848301970B8F84E10D8F8483001396C
:1043F000013389B2C8F84830B8F84C30A8F84E10EC
:10440000013BB8F84E109BB289B2A8F84C30002995
:10441000D3D0002BD1D102460A2380212846009711
:10442000FDF71CF9FF2200287FF450AFB8F84E309A
:104430009BB2934240F2B780D8F82410A8F84C20E1
:104440004B68234A1340234A43EA09031A434A604C
:10445000B3E74FF40073CBF8683037E7DBF824108C
:10446000FF231748ABF84C304B68184A03403B43D6
:104470001A434A60F3E6582303FB06435B6A9A69D2
:1044800022689B6922E7C9F868202268A2EB08022B
:104490000A2A7FF6F0AE9A6912F004027FF4EBAEBE
:1044A000582101FB0641886E81F86420202240F0EB
:1044B0002000886681F865209B6907E7802C00242E
:1044C000009800FC0024000200E800FE0024FF0128
:1044D000009C00FC0000FF015A6AD9F848301A70AD
:1044E000B9F84E30D9F84820013B01329BB2C9F8E7
:1044F0004820A9F84E30B9F84C30B9F84E20013BAD
:1045000092B29BB2A9F84C30002A3FF4ACAE002B1B
:104510007FF4A9AE0A23002280212846CDF800802E
:10452000FDF79CF800287FF4D1AEB9F84E309BB26D
:10453000FF2B0CD9D9F82410FF233B48A9F84C30A5
:104540004B683A4A03403B431A434A608BE6B9F84A
:104550004E30D9F824109BB233484A68A9F84C3041
:10456000DBB2024047EA0343134343F000734B605E
:1045700079E64146284679F02BFB00287FF4A6AE69
:10458000D9F8243020212A4DD9615A682A405A602E
:1045900089F8651089F866005822002302FB06445A
:1045A00084F864309DE6B8F84E30D8F824209BB2E9
:1045B0001D485168A8F84C30DBB2014049EA03437A
:1045C0000B4343F000735360F7E65823002203FBCC
:1045D000064383F8642079E6BBF84E30DBF82410FC
:1045E0009BB24A68ABF84C30DBB202EA090247EAF8
:1045F000034313430F4A1A434A60D7E603992846F8
:1046000079F0E6FA034600287FF460AED8F824205B
:104610002020074DD06151682940516088F865001D
:1046200088F86630B8E700BF009C00FC0000FF017E
:1046300000E800FE002400020248836B0BB12C301E
:1046400018477047000000240248836D0BB14C30BE
:1046500018477047000000240248836F0BB16C308C
:1046600018477047000000240348D0F898300BB179
:104670008C301847704700BF000000240348D0F872
:10468000B8300BB1AC301847704700BF00000024B1
:104690000348D0F8D8300BB1CC301847704700BF72
:1046A000000000240348D0F8F8300BB1EC30184774
:1046B000704700BF000000240348D0F8183113B140
:1046C00000F5867018477047000000240348D0F8B2
:1046D000383113B100F59670184770470000002478
:1046E0000348D0F8583113B100F5A6701847704749
:1046F000000000240348D0F8783113B100F5B670FB
:1047000018477047000000240348D0F8983113B1CF
:1047100000F5C67018477047000000240348D0F821
:10472000B83113B100F5D670184770470000002467
:104730000348D0F8D83113B100F5E6701847704738
:10474000000000240348D0F8F83113B100F5F670EA
:1047500018477047000000240348D0F8183213B1FE
:1047600000F50370184770470000002410B41C4681
:10477000436884466FF30F0323434360036843F0A9
:1047800001030360036843F400730360002C3AD014
:1047900040F2E930DCF814309B0748D5002A49D0B4
:1047A00012F8013B40F2E9308CF82030DCF814308C
:1047B000DB0720D40138F9D1214B9C450CD0A3F55F
:1047C00078439C4538D003F580639C4536D003F58B
:1047D00078439C450BD103201A4A00EB400002EBC2
:1047E000C002B2F8403201339BB2A2F8403200203E
:1047F0005DF8044B70479CF83000C0B209B101F875
:10480000010B013CC4D1DCF814301B07FBD5DCF8EC
:10481000183001205DF8044B43F01003CCF8183039
:10482000DCF8003023F00103CCF800307047013889
:10483000B0D1C1E7FF23B5E70120CDE70220CBE7E8
:10484000003001400000002408B5204B98420ED0F3
:1048500003F5806398420AD01D4A03F580439842CD
:1048600018BF904203D003F5806398421BD1FCF738
:1048700059FF1849184BCA69C969C2F30222C1F32A
:1048800002211A4492F8302002F01F02D040114A4F
:104890001269C2F3C03241EAC202134493F858309D
:1048A00003FB00F008BDFCF73DFF0A490A4BCA694B
:1048B000C969C2F3021CC1F3021103EB0C0292F8A6
:1048C000302002F01F02D040E1E700BF00000140AD
:1048D000004001400044025818C80C08024B03482D
:1048E000D3F82C11FCF7ECBC802C00240000014014
:1048F000034B4FF08040D3F83011FCF7E1BC00BF10
:10490000802C0024024B0348D3F83411FCF7D8BCA8
:10491000802C002400040040024B0348D3F83811D7
:10492000FCF7CEBC802C002400080040024B03485A
:10493000D3F83C11FCF7C4BC802C0024000C0040D0
:10494000024B0348D3F84811FCF7BABC802C002472
:1049500000040140024B0348D3F85811FCF7B0BCE7
:10496000802C002400180040024B0348D3F8641147
:10497000FCF7A6BC802C002400400140024B0348F9
:10498000D3F86811FCF79CBC802C00240044014043
:10499000024B0348D3F86C11FCF792BC802C002426
:1049A0000048014010B5064C0648D4F84811FCF701
:1049B00087FCD4F85C110448BDE81040FCF780BCCB
:1049C000802C002400040140001C004010B5064C5F
:1049D0000648D4F84811FCF773FCD4F86011044879
:1049E000BDE81040FCF76CBC802C002400040140A2
:1049F00000200040BFF34F8F0549064BCA6802F400
:104A0000E0621343CB60BFF34F8F00BFFDE700BFF1
:104A100000ED00E00400FA050021012008B50EF0C9
:104A2000EDF972B6FFF7E6FF2DE9F043BFB0BFF333
:104A30005F8FA14C0023626A22F480326262C4F864
:104A400094309DF843109DF844C009069DF842201B
:104A50000F9841EA0C7141EAC2419DF8452041EAB4
:104A600082419DF8462041EA42419DF8472041EAB3
:104A700002419DF8412041EA02219DF8402041EA8F
:104A80004201C4F898300133D4F8A020112B22F051
:104A90000102C4F8A020C4F89C00C4F8A010F0D112
:104AA0000523C4F89430636A43F480336362BFF330
:104AB0004F8FBFF36F8F8148814A8249121A87F066
:104AC000EDF8814B5A6D012A00F0DF80D4F8881090
:104AD00000227E4B012041F47001C4F88810186058
:104AE0001A61196841F08001196019680143196061
:104AF000196841F480311960196841F480511960D6
:104B00009A61DA611A629A62DA621A635A639A6384
:104B1000DA631A645A64196821F4802119601A66EC
:104B20004FF000636A49C1F80801A36081F008FFF3
:104B3000684AD36813F0040FD36840F09480664B42
:104B40000021644A0591D96A21F00101D962DB6A2A
:104B500003F001030593936943F440439361936920
:104B600003F440430593059B93699804FCD54C22BC
:104B700000210EA8594C87F047FC594A42F2030322
:104B8000A4F110011268B3EB124F4FF000024FF086
:104B9000040308BF0C460792E268A370002A4FD0B6
:104BA0004D4BD96A21F00101D962DB6A494903F012
:104BB000010307938B6923F4404313438B618B6993
:104BC00003F440430793079B424A93699904FCD539
:104BD0003E4B4FF4403543480321D3F8E02042F0E8
:104BE0008002C3F8E0200122D3F8E03003F0800314
:104BF0000693069B85610D9BCDE90013002381F090
:104C00004DFD022301204FF48031A288CDE91733F6
:104C100004231993A379CDE90E01E079217A1C9040
:104C20000EA81D91CDE91A2304220023CDE91E23ED
:104C3000FBF718FE032800F0D681002858D0FEE7C5
:104C4000244A254B916941F440419161926902F4F3
:104C500040420792DA6A42F00102DA62DB6A03F04C
:104C600001030793AFE723F007031F4C43F0020350
:104C7000D360216805E023685B1AB3F57A7F3FF6BD
:104C80005EAF53689D04F6D559E7104A00201749D6
:104C90005865D2F8F43043F00203C2F8F430D2F889
:104CA000F43003F002030E930E9B0B6883F3088825
:104CB0004B689847FEE700BF00ED00E000000000F1
:104CC000803A00000CF00D080040005800440258E3
:104CD0000080005100480258000400589C02002443
:104CE0000010005C001C0258802C00240098F01F6B
:104CF000754B1A6812F00E0F0BD11A6822F00F02D2
:104D000042F002021A601B6803F00F03022B40F00E
:104D10006C816E4A936903F070033F2B05D8936949
:104D200023F0700343F040039361684AD36903F0B2
:104D300070033F2B05D8D36923F0700343F0400381
:104D4000D361624AD36903F4E063B3F5806F05D29F
:104D5000D36923F4E06343F48063D3615B4A136A4D
:104D600003F070033F2B05D8136A23F0700343F060
:104D700040031362554B9A69120705D49A6922F0D1
:104D80000F0242F008029A61504A936923F470635B
:104D9000936113689B0130D5136941F288314C4C03
:104DA00023F0070343F003031361206804E0236842
:104DB0001B1A8B4200F2AD81136903F03803182BE4
:104DC000F5D1936903F00F03082B05D9936923F0FC
:104DD0000F0343F0080393613B4A136803F00F038A
:104DE000022B0BD9136823F00F0343F00203136067
:104DF000136803F00F03022B00D0FEE7334A9369D8
:104E000003F07003402B05D9936923F0700343F03E
:104E1000400393612D4AD36903F07003402B05D9F9
:104E2000D36923F0700343F04003D361274AD36969
:104E300003F4E063B3F5806F05D9D36923F4E0632D
:104E400043F48063D361214A136A03F07003402B5B
:104E500000F2CC801D4EFCF743FC1E4DB269B369D5
:104E6000C2F303221C4B134493F8303003F01F03AA
:104E700020FA03F368682B60FCF7C0FA002840F0C2
:104E800049811023159017900EA80E93FBF7EAFCAA
:104E9000002840F0A7803368104A43F08003336055
:104EA000D6F8F43043F00203C6F8F430D6F8F43004
:104EB00003F002030493049B136A43F0010313629B
:104EC000074B216810E000BF002000520044025848
:104ED000802C00240000002418C80C08000400588E
:104EE00080380100013B7ED022689142FAD02268CE
:104EF00023689B1A0A2BFBD900214FF48020A94C70
:104F00004FF440130026002730934FF00208CDE9FC
:104F10000E010EA8FCF744FCD4F8EC30A24941F293
:104F2000030243F002030EA8C4F8EC30D4F8EC30CE
:104F300003F002030393039BD4F8943043F002037D
:104F4000C4F89430D4F8943023F00203C4F89430B9
:104F50000B689649B2EB134F954B964A28BF0A4609
:104F60005A601A6822F47C5242F400521A601A689D
:104F700042F060021A6003220023CDE92C67CDE9DC
:104F80000E23FCF70DFC4FF4E04200230EA83A96E6
:104F9000CDE92667CDE90E23FCF702FC1822002399
:104FA0000EA82F963496CDE90E23FCF7F9FB4FF4AB
:104FB00080334FF480321796229300230EA8CDE958
:104FC0000E2305224FF4FA73CDE91566CDE91023BF
:104FD00003260423CDE912861493FCF7E1FB074670
:104FE00058B1FEE7FEE7FFF717FD06E7136A23F067
:104FF000700343F0400313622CE7D4F8E0304246DC
:105000004FF4807143F00103C4F8E030D4F8E0308D
:1050100003F001030993099B0346CDE9006066484C
:1050200081F03CFB23694246644823F0FE7343F061
:1050300088732361D4F8E03043F00403C4F8E0300F
:10504000D4F8E03003F0040308933B4608994FF48A
:105050000071CDE9006781F021FB236923F07E43D5
:1050600043F0FC432361FCF73BFB2860BFF35F8FF9
:10507000534C3E46534D4FF00108636A23F480338E
:105080006362C4F8947028E0002A41D02F686B7ADC
:10509000103515F8061C1B0643EA017343EA420368
:1050A00015F8052C43EA824315F8042C43EA4243E1
:1050B00015F8032CC4F89860013643EA0243D4F88B
:1050C000A020032E43F0010322F00102C4F8A02027
:1050D000C4F89C70C4F8A0301DD06B682A7A002BED
:1050E000D2D02F68002AD2D127F01F02A3EB0209E9
:1050F000B9F1200F38BF4FF02009484686F0ACFFC9
:10510000421E08FA02F1894508BF0246D2B2BEE744
:10511000FEE772E671E60523C4F89430636A43F44F
:1051200080336362BFF34F8FBFF36F8FBFF34F8F37
:10513000BFF36F8F0022C4F85022BFF34F8FBFF32D
:105140006F8F636943F400336361BFF34F8FBFF325
:105150006F8FC4F88420BFF34F8FD4F8804043F69C
:10516000E0761749C4F34E32C4F3C904520102EA8F
:105170000605234645EA8370013BC1F86002F9D277
:10518000203A12F1200FF2D1BFF34F8F4B6943F455
:1051900080334B61BFF34F8FBFF36F8F3FB0BDE8DC
:1051A000F08300BF004402580010005C7FBB220067
:1051B000008400407FBB22300000025800080258E3
:1051C00000ED00E0AC0200242DE9F843374E98468C
:1051D00006EB80039C6E002C65D004F1D203883668
:1051E0000546B4F8D202A36104F5E9736660174678
:1051F000E3614FF48073261DE160C4E90433236842
:10520000C4F8CC30A36300284AD194F8D1000CF044
:1052100083FD18F0080F94F8D09034D1BA0723D446
:10522000FB0711D4052194F8D60278F081FD94F89B
:10523000D63201221E4903F01F005B09824041F86B
:1052400023203046BDE8F883013548460CF064FD64
:10525000EDB218B140F206630572C38094F8D4220F
:1052600002210CF037FDDDE76B1CDBB218B10372D5
:1052700040F20653C38094F8D52202210CF02AFD97
:10528000FB07CFD5E0E70135EDB218B140F2067368
:105290000572C38094F8D52202210CF01BFDC1E7F2
:1052A00078F0E0FAB1E72646CBE700BF18C80C0853
:1052B00000E100E00148FDF707BE00BFE002002466
:1052C0000148FDF701BE00BFB80500240148FDF705
:1052D000FBBD00BF900800240148FDF7F5BD00BFED
:1052E000680B00240148FDF7EFBD00BF400E00240D
:1052F0000148FDF7E9BD00BF181100240148FDF782
:10530000E3BD00BFF0130024F8B52422456B002351
:105310008168C0F8BC2004462A6800F13407C66DD5
:1053200022F001022A602B606B60AB6090F806E00F
:10533000C0F8C43080F8B830C0F8BC30C364C0F8DE
:10534000C0304365C0F8A030C0F8A4304FEA8E23C7
:10535000816303F48053C3634FEA0E3303F40053B5
:1053600003644FEA0E2303F4806343644379D80750
:1053700003F0020253D4002A6FD1A264574B03F109
:10538000200C53F8042F22B11068D4F8C8108842BA
:105390006FD09C45F5D11EF0080FD4F8BC3077D003
:1053A000002B00F097802423C4F8BC302B6823F036
:1053B00001032B60002E40F089803846FDF73EFA4D
:1053C000012812D06B68384623F490436B60AB68B9
:1053D00023F02203AB60AB6843F00803AB602B689B
:1053E00043F001032B6080F07FFF6279D1070DD578
:1053F000D4F8C830196841F480711960996841F097
:1054000001019960196841F020011960930705D5E1
:10541000D4F8C820136843F080031360F8BD042358
:10542000A36482B10C231EF0010FA364A6D04FF435
:10543000803346F00206636646F001064FF40033FF
:10544000E66523669AE71EF0010F97D046F0020644
:105450004FF48033E665636690E708231EF0010F82
:10546000A3648BD046F001064FF40033E665236653
:1054700084E792F8D732002B8DD04FF4004346F0EA
:1054800008061EF0080FE366E665D4F8BC3087D145
:10549000CBB12423C4F8BC302B6823F001032B606C
:1054A0006EB93846FDF7CAF901289ED06B683846B8
:1054B00023F490436B60AB6823F02A038EE73846F1
:1054C000FBF7E0FDEDE784F8B830E2E73846FBF79C
:1054D000D9FD72E784F8B83065E700BF7CC80C08D6
:1054E000816011E741710FE781710DE72DE9F84304
:1054F000434D3C20434C05F1BC02B5F8C230C4F822
:105500006421A4F87031B5F8C620B5F8CA30A4F803
:105510007221A4F868310CF0FFFB074642200CF022
:10552000FBFB064638200CF0F7FB81461FB10D232C
:10553000FB8000233B721EB10D23F38000233372E6
:10554000B9F1000F05D00D23A9F80630002389F822
:105550000830B5F8CE303920A4F86A31B5F8D23029
:10556000A4F86C31B5F8D630A4F86E310CF0D4FB49
:1055700080463A200CF0D0FB05463B200CF0CCFBDB
:105580000446B8F1000F05D00D23A8F8063000231B
:1055900088F808301DB10D23EB8000232B721CB15D
:1055A0000D23E3800023237248460CF06BFB01219E
:1055B00048460CF06DFB40460CF064FB28460CF0AE
:1055C00061FB20460CF05EFB404601210CF060FBC5
:1055D000284601210CF05CFB012120460CF058FB11
:1055E00038460CF04FFB30460CF04CFB384601219E
:1055F0000CF04EFB30460121BDE8F8430CF048BBEF
