:020000040800F2
:1000000000000220B1470C0835480C08F907070822
:1000100035480C0835480C0835480C08000000002D
:1000200000000000000000000000000035480C083F
:1000300035480C080000000035480C08C583050849
:1000400035480C0835480C0835480C0835480C086C
:1000500035480C0835480C08D9560508DD56050802
:10006000E1560508E5560508E9560508715B0408E0
:10007000855B0408995B0408AD5B0408C15B040858
:10008000D55B0408E95B040835480C0835480C08C2
:1000900035480C0835480C0835480C08ED5605085D
:1000A00035480C0835480C0835480C08215E040812
:1000B000355E0408495E04085D5E0408C14E04080C
:1000C000B54E0408F14E0408E54E040835480C0806
:1000D00035480C08F9670408056804081168040825
:1000E000F156050835480C0800000000995E040828
:1000F000E95E0408115F0408855E0408FD5B0408DE
:1001000035480C08A5970408715E040835480C08AA
:100110001D68040835480C0835480C0881D90408C6
:10012000115C0408255C0408395C04084D5C040873
:10013000615C040835480C0835480C0835480C0843
:1001400000000000000000000000000000000000AF
:10015000755C0408895C04089D5C0408296804082F
:10016000254F0408194F040835480C0835480C0879
:1001700035480C0835480C0835480C0800000000CC
:1001800035480C0835480C083568040841680408EF
:1001900035480C0835480C0835480C0835480C081B
:1001A00035480C0835480C0835480C0835480C080B
:1001B00035480C0835480C0835480C0835480C08FB
:1001C00035480C0835480C0835480C0835480C08EB
:1001D00035480C0845C5040835480C0835480C0856
:1001E00035480C0835480C0835480C0835480C08CB
:1001F00035480C0835480C0835480C0835480C08BB
:1002000035480C0835480C0835480C0835480C08AA
:10021000AD5E0408C15E0408D55E040835480C08CC
:1002200035480C0835480C0835480C08000000001B
:10023000A997040835480C080000000035480C0850
:1002400035480C0835480C0835480C0835480C086A
:1002500035480C0835480C0835480C0835480C085A
:1002600035480C0835480C0835480C0835480C084A
:1002700035480C0835480C0835480C0800000000CB
:1002800035480C080000000035480C08000000004C
:080290000000000035480C08D5
:0802980018380C000100000001
:1002A00060B80124020400000401450080B8012464
:1002B0000205000004014400A0B80124011300005D
:1002C00000017600C0B801240115000000011E00E5
:1002D000E0B80124011B000000010D0000B9012459
:1002E000011C000000012C0020B9012401160000AF
:1002F00000010C0040B901240117000000010C00AE
:1003000060B90124011D000000010E0080B9012424
:10031000011E000000011E00A0B901240118000008
:1003200000010C00C0B901240119000000010E00F9
:10033000E0B90124011A000000010C0000BA0124F8
:100340000120000000010C0020BA0124012100005E
:1003500000010C0040BA0124012A0100000018002D
:1003600060BA0124012200000000480080BA012484
:100370000123000000004900A0BA0124012400006C
:1003800000004A00C0BA01240125000000004B0013
:10039000E0BA01240126000000004C0000BB01244B
:1003A0000127000000004D0020BB012401280000AF
:1003B00000004E0040BB01240129000000004F0056
:1003C00060BB0124012D00000000290080BB012436
:1003D000012E010000002900A0BB0124012F010013
:1003E00000007000C0BB012401310000000031009A
:1003F000E0BB0124013001000000520000BC0124D8
:10040000013201000000280020BC0124013300005B
:100410000000760040BC01240134010000002800E7
:1004200060BC0124022B050000002C0080BC0124CC
:100430000137000000013C00A0BC0124013A00008B
:040440000000200098
:020000040804EE
:10000000836B5A6D12F0500F5A6D1AD1196842F471
:1000100000725A650A6812F0080FCA6816D012F406
:10002000406F15D1CA68920412D45A6D22F48072BE
:100030005A655A6DD1040BD45A6D42F001025A65CB
:100040007047D20604D4DB6CDB6C18479007ECD009
:10005000704700BF704700BF836B5A6D42F040028B
:100060005A659A6D42F004029A6570473649024615
:1000700003688B4233D01831591AB1FA81F149091A
:1000800069BB324883423ED0183083423ED018309C
:10009000834234D0183083423BD0183083423ED064
:1000A000183083422AD000F55670834235D0284953
:1000B0008B4231D018318B4234D018318B4234D03E
:1000C00018318B4234D018318B4234D018318B42E6
:1000D00034D018318B4234D023F0FF0011E0DBB272
:1000E0001C491D48103BA1FB031310B41B091B4CFA
:1000F000E15C5DF8044BC2E916017047162118480F
:10010000D1659065704710211348F9E71621124810
:10011000F6E706211248F3E706211248F0E710211E
:100120000F48EDE710210F48EAE716210D48E7E7F1
:1001300000210D48E4E706210B48E1E710210A48B9
:10014000DEE716210848DBE71000024040000240CD
:1001500028040240ABAAAAAA00000240C0980C08DA
:1001600004000240000402400404024002685549B1
:1001700038B5554B554D564CAA4218BF9A420CBF44
:10018000012300238A4208BF43F001033031A24219
:1001900008BF43F0010330348A4208BF43F0010333
:1001A0003031A24208BF43F0010330348A4208BF15
:1001B00043F0010301F55C71A24208BF43F0010363
:1001C00004F55C748A4208BF43F001033031A24257
:1001D00008BF43F0010330348A4208BF43F00103F3
:1001E0003031A24208BF43F0010330348A4208BFD5
:1001F00043F001033031A24208BF43F001038A42B9
:1002000008BF43F0010313B9324B9A4208D10423CB
:1002100080F83530136823F001031360002038BDE7
:100220002D4B2E4D1168AA4218BF9A422C4C21F03A
:100230000E0105F13C050CBF012300231160A24211
:1002400008BF43F0010311682834AA4208BF43F0F5
:10025000010321F00101A24208BF43F0010314345D
:100260001160A24208BF43F001031E498A4208BF41
:1002700043F0010313B91C4B9A4217D10123856D3A
:10028000D0E91714226801F01F0122F480728B401C
:1002900022606B60C36ED0E91921516033B11A68D6
:1002A000D0E91C1422F480721A604C6001210022F3
:1002B000036D80F8351080F83420002BAED09847BD
:1002C000ACE700BF4000024010000240280002409E
:1002D00058000240B80402401C5402580854025806
:1002E0003054025880540258945402580168002235
:1002F0000B6880F842205A0410B40ED50B6823F422
:1003000080430B6090F84130292B10D090F8413099
:100310002A2B24D05DF8044B70471B04F2D50B68E0
:1003200023F400430B6090F84130292BEED12822B2
:10033000212380F841200022036390F841300C68AB
:1003400003F02803282B14BF6FF0F2036FF0420371
:1003500023405DF8044B0B6080F840207047282252
:10036000222380F841200022036390F841300C687A
:1003700003F02803282B14BF6FF0F4036FF044033D
:1003800023405DF8044B0B6080F84020704700BFAD
:100390000023202210B4174C4363C462036380F827
:1003A000412080F842304B07026811D5526A436AF7
:1003B0001A70436A028D013343624AB1438D013A98
:1003C000013B02859BB24385436C43F004034364C5
:1003D0000368102490F84120002190F841201A6809
:1003E00022F0FE021A60DC615DF8044B80F84010D8
:1003F000704700BF0000FFFF70B5574B002590F815
:100400004120044680F84250283AC3624585436C37
:10041000022A41EA0301036841642FD890F8411091
:1004200090F84120282001F0280102F02802282914
:1004300014BFF6214621282A1A680CBFC9436FF061
:10044000F6010A4045491A6084F84100A06B226B0E
:10045000616318B1112A42D0212A40D0E06B18B153
:10046000122A51D0222A4FD094F84130602B4FF0FD
:1004700000032DD0236384F8403070BD90F84120F4
:1004800090F841201A6822F0FE021A609A699207D9
:1004900000D59D629A69D60703D49A6942F0010299
:1004A0009A6194F84120602A10D0202284F84120DB
:1004B0009A6995060AD59A69D00605D51022DA619F
:1004C000626C42F0040262642022DA610021BDE71E
:1004D000202284F8403084F84120236370BD1A68DC
:1004E00051042CD490F83530012BBDD000221C4B88
:1004F000036584F8402090F83520022A24D0802219
:100500004265BDE8704018471A68120403D51A689E
:1005100022F400421A6090F83530012BA4D000225A
:100520000F4B036584F8402090F83520022AE6D16D
:10053000FFF71CFE0028A0D0E06B036DE1E71A680E
:1005400022F480421A60CDE7FFF710FE002894D015
:10055000A06B036DD5E700BF0000FFFFDD050408B9
:100560002D09040803689A69196810B4D40528D5C0
:100570000C0606D4416C11F00B0F1FD15DF8044B33
:100580007047416C4FF4807441F0010141645105A2
:10059000DC6120D5416C4FF48064920541F0080184
:1005A0004164DC61E6D5426C4FF4007142F0020216
:1005B0004264D961416C11F00B0FDFD05DF8044B40
:1005C0001AE7540502D50906E4D4D3E79405D1D53A
:1005D0000906E8D4CEE79205E5D4CBE7F8B590F864
:1005E00040300D46C16A012B00F008810123AE06A0
:1005F000044680F8403001D5900656D4EB0619D554
:10060000D70617D5638D9BB2002B40F0F98094F884
:100610004130B1F1007FDBB240F0D580282B40F0B3
:10062000D28029462046FFF7B3FE0023184684F8FF
:100630004030F8BD68071AD42F0701D516074AD4F1
:10064000A807F2D59307F0D5638D9BB2002B00F07D
:10065000FA80616A236811F8010B228D9862638D1C
:10066000013A6162013B22859BB26385DDE7530756
:10067000E2D5638D9BB26BB12268636A526A1A70CD
:10068000638D606A228D013B0130013A9BB260624A
:1006900022856385638D9BB2002BC6D111F5803F07
:1006A000C3D02046FFF722FEBFE723682021186849
:1006B000E66A94F84120D961213A092A1ED8DFE878
:1006C00012F0C70015001D001D001D001D001D00BB
:1006D000F000C700150094F84130226803F02803A9
:1006E000282B00F0C5800823D3619EE794F84120B1
:1006F0001A6822F0FC021A60222222635A68894991
:1007000042F400425A605A680A405A609A69910756
:1007100001D500229A629A69D20703D49A6942F0FD
:1007200001029A6147047BD51A6822F480421A605C
:10073000A26B1AB111684A6892B262856A070BD53A
:100740005A6A25F00405636A1A70636A01336362AA
:10075000238D002B40F08580638D9BB21BB1636CB1
:1007600043F004036364EB061AD5C70618D5638DFE
:100770009BB2002B40F0AA8094F84130282B03D183
:10078000B6F1007F00F0C98094F8413016F5803F43
:100790002268DBB202D0292B00F0AD801023D36198
:1007A000002384F84230666C6363002E40F084803E
:1007B000E36A5D4DAB423DD194F84130202384F88B
:1007C0004130266331E794F841202368292A4FF00D
:1007D0001002DA617FF429AF11F5803F3FF425AFB5
:1007E0009A69960701D500229A629A69D5073FF562
:1007F00058AF9A6942F001029A6152E70220F8BDAF
:1008000023681022DA61636C43F00403636431F0FF
:1008100080737FF40AAF616C2046FFF7EDFD04E7BB
:1008200001048BD51A6822F400421A60E26B002A98
:1008300080D183E72046FFF759FD2023E56284F845
:1008400041302663F1E631F080737FF4EEAE28E7A5
:1008500094F841201A6822F0FA021A6021222263D9
:100860004CE7013B2385638D013B9BB2638573E7B6
:10087000E1689369022990699368D56836D1C3F31A
:10088000C21383EA104313F006032FD1A16C013188
:10089000A164A16C02297FF4C8AE0821A364D161D0
:1008A000C3E694F8412094F841201A6822F0FE0231
:1008B0001A600022226321E7616C2046FFF79CFD4D
:1008C00094F84130282B7FF4B0AEAAE623681022BA
:1008D000DA61636C43F00403636436F080737FF481
:1008E0005FAF616C2046FFF787FD59E7136823F07F
:1008F000B803136099E61023D3619369980701D573
:10090000002393629369D90703D4936943F00103E9
:1009100093612046FFF7EAFC42E729462046FFF7AD
:1009200037FD3DE700E800FE0000FFFF836B9A6B98
:100930000AB100211165DA6B0AB10021116593F843
:100940004120602A05D000221A63002283F840204B
:1009500070470022202183F841101A63002283F897
:1009600040207047016870B4CC072DD5914A1369B7
:10097000926A03F03803102B00F0E180182B00F08E
:10098000D9804368B3F5803F00F00581002B00F06B
:100990005A81B3F5A02F874B1A6800F0678222F4C2
:1009A00080321A601A6822F480221A60824B41F267
:1009B000883C804C1D6804E01A68521B624500F2B6
:1009C0003F8122689603F7D58A0768D4CD0631D5D2
:1009D000784A1369926A03F03803082B00F0C0804C
:1009E000182B00F0B880C369724C002B00F05F81B7
:1009F0002268714B42F0800222601D6804E01A6890
:100A0000521B022A00F21C812268D205F7D56B4BDB
:100A1000026A1D6841F20303B3EB154FC0F0448234
:100A20006368202A23F0F8430CBF43F0804343EA75
:100A3000826363600D0713D543695E4C002B00F0A1
:100A40001881626F5C4B42F0010262671D6804E02E
:100A50001A68521B022A00F2F380626F9207F7D5E0
:100A60008C0613D58369534C002B00F0118122684A
:100A7000514B42F4805222601D6804E01A68521BF8
:100A8000022A00F2DD8022689204F7D5490700F1BE
:100A90008880436A002B40F0BC80002059E0454A22
:100AA0001369926A13F038032BD1424AC368126863
:100AB000520701D5002B4BD03E4C226822F0190280
:100AC0001A433D4B22601D6804E01A68521B022A3B
:100AD00000F2B68022685607F7D5384B02691D68C8
:100AE00041F20303B3EB154F6368C0F0028123F4B6
:100AF0007C33402A0CBF43F4003343EA0233636083
:100B000064E7182B00F0F180C3682A4C002B00F03A
:100B1000DD80226822F019021A43274B22601D68EB
:100B200004E01A68521B022A00F28A8022685207E7
:100B3000F7D5D2E702F00302022A7FF422AF1D4B61
:100B40001B689B037FF540AF4368002B7FF43CAFED
:100B5000012070BC704702F00302012A7FF443AF0A
:100B6000144B1B68DC0502D5C369802BF0D1134CF4
:100B700041F20303026A2468B3EB144FC0F0BF8054
:100B8000202A00F09E810B4C636823F0F84343EA6F
:100B9000826363604EE7074A136843F4803313604F
:100BA00004E70749044B0A6842F480720A601C6833
:100BB0000CE000BF00440258802C00240010005CB0
:100BC000004802581A68121B642A39D80A68D505E9
:100BD000F8D58268012A00F06E81002A00F04E816B
:100BE000052A9F4A116F00F0748121F001011167FD
:100BF000116F21F0040111671D6841F28834984992
:100C000003E01A68521BA2421AD80A6F9207F8D55D
:100C10003FE793490A6902F03802182A00F0D580AC
:100C20000A68022B8F4B22F080720A606FD018681E
:100C30000A6892017FF531AF1A68121A022AF7D9B1
:100C4000032070BC7047864C41F28835854B226882
:100C500022F480322260226822F4802222601E6800
:100C600003E01A68921BAA42EAD822689203F8D4D9
:100C7000AAE6626F7B4B22F0010262671D6803E007
:100C80001A68521B022ADBD8626F9607F8D4E7E68F
:100C90002268744B22F4805222601D6803E01A68B7
:100CA000521B022ACCD822689604F8D4EEE62268B9
:100CB0006C4B22F0800222601D6803E01A68521B10
:100CC000022ABDD82268D605F8D4B3E62268654B5F
:100CD00022F0010222601D6803E01A68521B022AFA
:100CE000AED822685607F8D470E694077FF40CAFAC
:100CF000DBE623F0FE4343EA0263636066E6584C9A
:100D0000E36823F07C5343EA0263E36092E61C68E5
:100D100003E01A68121B022A92D80A689501F8D4D7
:100D20008C6A514A2240846A2243C46A42EA04120D
:100D30008A62D0E90D24013A013C5202240492B2A5
:100D400004F4FE042243046B013CC4F30804224370
:100D5000C46B013C240604F0FE4422430A63CA6AC1
:100D600022F00102CA624A6B846C6FF3CF0242EA3E
:100D7000C4024A63CA6A046C22F00C022243384C53
:100D8000CA62CA6A406C22F002020243CA62CA6A9C
:100D900042F48032CA62CA6A42F40032CA62CA6A43
:100DA00042F48022CA62CA6A42F00102CA620A6838
:100DB00042F080720A601968226890013FF56DAEBA
:100DC0001A68521A022AF7D93AE7012B8A6A0D6B80
:100DD0003FF4BEAE02F00303846AA3427FF4B8AED0
:100DE000C2F30512C36A9A427FF4B2AE036BC5F335
:100DF0000802013B9A427FF4ABAE436BC5F3462237
:100E0000013B9A427FF4A4AE836BC5F30642013BDB
:100E10009A427FF49DAEC36BC5F30665013B9D42CC
:100E20007FF496AE4B6B816CC3F3CC0399423FF4D5
:100E300034AE0B480B4BC26A22F00102C2621A6840
:100E400018688242FCD0064A536B6FF3CF0343EA23
:100E5000C1035363D36A43F00103D3621DE600BFAD
:100E600000440258802C00240CFCFFFF42F4802236
:100E70001A601A6842F480321A6097E5194941F203
:100E800088350A6F22F001020A670A6F22F0040215
:100E90000A671C6804E01A68121BAA423FF6D0AE2B
:100EA0000A6F9607F7D4F4E5E36823F07C5343EA2E
:100EB0000263E360BEE50B490A6F42F001020A6774
:100EC0009AE6084A536823F0F84343F0804353609E
:100ED000B0E541F004011167116F41F001011167A4
:100EE0008AE600BF00440258334B30B4996A9C6ACA
:100EF000DD6A14F47C7F5A6BC4F3051036D0C2F35C
:100F0000CC0205F0010501F0030107EE900A05FB94
:100F100002F20129B8EEE77A06EE902AFAEEE96AC3
:100F200002D0022942D019B3DFED247A87EE876A16
:100F30001B6BC3F3080307EE903AF7EE005AF8EE86
:100F4000E77A77EEA67A77EEA57A67EE867A1A4B7D
:100F50001B6BC3F34623013307EE103AF8EEC76A62
:100F600087EEA67AFCEEC77A17EE900A30BC70477F
:100F70001A6892061DD51968F7EE005A104A1B6BC5
:100F8000C1F3C101C3F30803CA4007EE903A06EE6D
:100F9000102AF8EEE77AB8EEC66A77EEA66AC6EED1
:100FA000077A36EEA57A67EE877AD0E7DFED057A25
:100FB000BCE7DFED057AB9E7004402580024744A23
:100FC0000090D0030024F44A0024744C344A13687F
:100FD00030B423F08063334C1360256803E023684A
:100FE0005B1B022B54D813681B01F8D4936A056865
:100FF00023F47C3343EA053393628368C568013B7D
:10100000013D5B022D049BB205F4FE052B434568B0
:10101000013DC5F308052B430569013D2D0605F08B
:10102000FE452B439363D36A456923F0C0032B43EA
:10103000D362D36A856923F020032B43D362D36A3A
:1010400023F01003D362D36BC0696FF3CF0343EA7D
:10105000C003D363D36A43F01003D362D36AD1B120
:1010600001290CBF43F4801343F40013D3620C4AEC
:10107000136843F080631360216803E023685B1A00
:10108000022B05D813681B01F8D5002030BC70472F
:10109000032030BC704743F40023D362E7E700BF6E
:1010A00000440258802C0024344A136830B423F0E2
:1010B0008053334C1360256803E023685B1B022BCD
:1010C00054D813689B00F8D4936A056823F07C73A6
:1010D00043EA055393628368C568013B013D5B02A7
:1010E0002D049BB205F4FE052B434568013DC5F375
:1010F00008052B430569013D2D0605F0FE452B43F0
:101100001364D36A456923F440632B43D362D36AE3
:10111000856923F400732B43D362D36A23F480736D
:10112000D362536CC0696FF3CF0343EAC0035364C7
:10113000D36A43F48073D362D36AD1B101290CBF5F
:1011400043F4000343F08073D3620C4A136843F006
:1011500080531360216803E023685B1A022B05D8D3
:1011600013689B00F8D5002030BC7047032030BCCA
:10117000704743F48003D362E7E700BF004402589E
:10118000802C0024836A1A0710B406D50168846B8A
:101190004A6822F4004222434A60DC0706D501680F
:1011A000C46A4A6822F4003222434A60990706D58D
:1011B0000168046B4A6822F4803222434A605A076D
:1011C00006D50168446B4A6822F4802222434A60B3
:1011D000DC0606D50168C46B8A6822F4805222437B
:1011E0008A60990606D50168046C8A6822F4005268
:1011F00022438A605A060AD50168446C4A68B4F5ED
:10120000801F22F4801242EA04024A600BD01B06BF
:1012100006D50268C16C536823F400230B43536066
:101220005DF8044B70474A68846C22F4C002224384
:101230004A60ECE70022836BA3F85E20704700BF92
:10124000124B41F2883C124A01461B68A2FB032361
:101250005B0A0CFB03F33BB14A6B12F0450F01D064
:10126000920404D5013BF7D14FF0004070474B6B1F
:101270005B0707D4486B10F0010014BF0123054B36
:101280008B637047042318468B637047000000246B
:10129000D34D6210C5002000036942681F2B70B453
:1012A00033D9A3F1200520245168AC4021422AD033
:1012B0008169087C032839D0087C022801D10020EC
:1012C00008744C681F2BC96826684D6860791849F6
:1012D000246901EB4000C4F30324008901EB84017D
:1012E00000F4F0500C69F16821EA0001F160114945
:1012F000085D295821F00101295011D9A3F12001DD
:1013000020238B40D36070BC7047202411689C4020
:101310002142F8D08169087C0328CDD19460F2E79E
:10132000202101FA03F370BC93607047D460EAE7B0
:10133000C0980C08FC990C08D0E907239A423CBFDE
:10134000C1685218D01A7047D0E9092300699A423F
:1013500038BF12180138D31AC01A7047D0E90902F1
:10136000101AB0FA80F04009704700BF016A0346C6
:1013700040694A1C405CD9688A4228BF00221A6230
:10138000704700BF436A826910B4D154436A416B0D
:10139000046901330A68A34228BF00235DF8044BA7
:1013A00042F0800243620A60704700BF436BD86915
:1013B00010F0100002D0102201201A62704700BF06
:1013C0002DE9F047046982B0C3681C4046D08146CD
:1013D00088464FF0004501F1500701F13806B4FA94
:1013E00084F325FA03F21B3BD2431440C9F81020C2
:1013F000B8F1000F5FD0042B2ED8DFE803F052487D
:101400003D320300D8F81030D9F82CA033B19B68D6
:1014100023B11FFA8AF108F108009847D8F828305C
:1014200033B19B6823B11FFA8AF108F12000984775
:10143000D8F8403033B19B6823B11FFA8AF108F124
:1014400038009847D8F8583033B19B6823B11FFA59
:101450008AF108F150009847002CC0D102B0BDE8D5
:10146000F087D8F8103008F10800D9F834105B681C
:101470009847002CB3D1F1E7D8F8283008F12000C4
:10148000D9F838105B689847002CA8D1E6E7D8F85F
:1014900040303046D9F83C105B689847002C9ED10C
:1014A000DCE7D8F858303846D9F840105B689847E0
:1014B000002C94D1D2E7042B07D8DFE803F01903FE
:1014C000140F0A00D9F83C300193019B002C86D1FF
:1014D000C4E7D9F82C300193019BF7E7D9F83430F1
:1014E0000193019BF2E7D9F838300193019BEDE7B6
:1014F000D9F840300193019BE8E700BF70B5124D69
:10150000124A2B68A2FB03239B09013BB3F1807FA6
:1015100001D3012070BD4FF0E0220D4900240F28B7
:1015200053614FF0F003064681F823304FF0070374
:1015300094611361EDD801464FF0FF3079F0A6FDBC
:1015400020466E6070BD00BF00000024D34D6210C5
:1015500000ED00E0F0B50C4611460268864693693E
:1015600013F0100C72D04FF0000C10233848654671
:10157000D36193699E065FD445B903685B1AA342A1
:101580003DD893699F06F8D52023D3614CF0040C15
:1015900001209369D90552D54FF480715F054CF055
:1015A000010CD16104D54FF480614CF0080CD1617D
:1015B0009D0504D54FF400734CF0020CD361936980
:1015C000990701D5002393629369DB0703D49369DC
:1015D00043F001039361536820241E4901200B400E
:1015E00000215360DEF844308EF8401043EA0C03CB
:1015F000CEF844308EF841408EF84210F0BD576866
:101600009EF842309669DBB2360408D57E0406D4D3
:10161000202B04D0536843F48043536001689369DE
:101620009F06A6D403685B1A192BF8D993694FF06B
:10163000200C01259E069FD5002DA5D0A6E75E05AE
:10164000B1D49C05B6D40028B9D1F0BD6046A0E75E
:10165000802C002400E800FE2DE9F04707689A4638
:10166000089EBB6931EA03030CBF012300239342A8
:1016700020D180460C461546DFF85C903246514634
:101680004046FFF767FF20BBD9F80030A3EB060CFC
:10169000D44507D9BB6934EA03030CBF01230023F7
:1016A000AB420AD0BB6934EA03030CBF0123002319
:1016B000AB42E3D00020BDE8F087D8F844302022C8
:1016C00088F840001343C8F8443088F8412088F86F
:1016D00042000120BDE8F087802C00240C4A1369E9
:1016E00003F03803102B0DD0182B09D063B9136801
:1016F0009B060BD513680748C3F3C103D840704756
:10170000FFF7F2BB04487047044870470148704730
:10171000004402580090D00300127A0000093D00F6
:10172000184A136903F03803102B10B524D0182B76
:1017300009D01BBB13689B0622D513681248C3F35C
:10174000C103D84001E0FFF7CFFB0E490F4A8B6978
:101750008969C3F303230E4C01F00F0113440A44BB
:1017600093F8301092F8303001F01F0203F01F039D
:10177000D0402060D84010BD0648E6E70648E4E7C0
:101780000148E2E7004402580090D003C0980C08DA
:101790000000002400127A0000093D002DE9F84302
:1017A000D0E900480646250100F17C830027E005CA
:1017B0000CD5D6F85890B9F1040F06D8DFE819F027
:1017C000E00356052505E503E50301273D46A10590
:1017D00026D5D6F85C90B9F1800F00F0298500F28B
:1017E0006686B9F1000F00F0D684B9F1400F40F0E1
:1017F0006686914B9B6A03F00303032B00F05F8620
:10180000002106F10800FFF7E1FB0546002D40F03E
:10181000CA84894A136D23F4E07343EA090313650C
:10182000620526D5D6F8A890B9F5800F00F00F858F
:1018300000F24986B9F1000F00F09784B9F5001F56
:1018400040F049867C4B9B6A03F00303032B00F0B6
:101850004286002106F10800FFF7B8FB0546002D7F
:1018600040F08B84744A936D23F4600343EA0903C8
:101870009365230526D5D6F8AC90B9F1007F00F02A
:10188000A28400F20186B9F1000F00F0FD84B9F1E5
:10189000807F40F00186684B9B6A03F00303032BB3
:1018A00000F0FA85002106F10800FFF78FFB0546DE
:1018B000002D40F09884604A936D23F0E06343EA82
:1018C00009039365A0011DD5D6F84C90B9F1200FFE
:1018D00000F0AE8300F20F86B9F1000F08D0B9F125
:1018E000100F40F00C86544AD36A43F40033D3629D
:1018F000002D40F07383504AD36C23F0300343EA49
:101900000903D364E10426D5D6F86090B9F5005FE9
:1019100000F06C8400F2E385B9F1000F00F0308430
:10192000B9F5805F40F0E385434B9B6A03F0030306
:10193000032B00F0DC85002106F10800FFF746FBD1
:101940000546002D40F024843B4A136D23F4E04308
:1019500043EA09031365A20425D5D6F86490B9F5C6
:10196000003F00F0878300F28185B9F1000F10D0AD
:10197000B9F5803F40F084852F4B9B6A03F0030349
:10198000032B00F07D85012106F10800FFF71EFB07
:101990000546002D40F08184274A136D23F4E0238F
:1019A00043EA09031365630425D5D6F8B090B9F16D
:1019B000005F00F02C8300F22F85B9F1000F10D0EA
:1019C000B9F1805F40F032851B4B9B6A03F0030343
:1019D000032B00F02B85012106F10800FFF7F6FA32
:1019E0000546002D40F06684134A936D23F0E043D2
:1019F00043EA0903936520040FD5D6F87090B9F136
:101A0000805F00F02482B9F1005F00F08085B9F1B9
:101A1000000F00F0218201273D46E1011DD5D6F8D7
:101A20004890B9F1030F00F2B985DFE819F00C0016
:101A3000070034030C0000BF004402583E4AD36A3A
:101A400043F40033D362002D40F0C6823A4AD36C8F
:101A500023F0030343EA0903D364620200F14F82D7
:101A6000E30731D5D6F87C90B9F1280F2AD8DFE802
:101A700019F00E0229002900290029002900290057
:101A80002900010229002900290029002900290034
:101A900029004804290029002900290029002900DB
:101AA00029000E0229002900290029002900290007
:101AB00029000E02290029002900290029002900F7
:101AC00029000E0201273D46A00724D5D6F87890BC
:101AD000B9F1050F00F25485DFE819F01300060094
:101AE0000204130013001300134B9B6A03F003035B
:101AF000032B00F04585012106F10800FFF766FA87
:101B00000546002D40F0D0830B4A536D23F00703A8
:101B100043EA09035365610727D5D6F89490B9F1D4
:101B2000050F00F22985DFE819F016000900CA0345
:101B300016001600160000BF00440258B14B9B6A05
:101B400003F00303032B00F01785012106F10800C1
:101B5000FFF73CFA0546002D40F0A483A94A936D97
:101B600023F0070343EA09039365A20625D5D6F8B7
:101B70009090B9F1005F00F09F8200F23C84B9F1CF
:101B8000000F10D0B9F1805F40F03F849D4B9B6AFD
:101B900003F00303032B00F03884002106F1080052
:101BA000FFF714FA0546002D40F07583954A536DF2
:101BB00023F0E04343EA09035365630625D5D6F8CD
:101BC0009C90B9F5006F00F0888200F23384B9F17F
:101BD000000F10D0B9F5806F40F03684894B9B6AB6
:101BE00003F00303032B00F02F84002106F108000B
:101BF000FFF7ECF90546002D40F05A83814A936DBA
:101C000023F4E05343EA09039365200625D5D6F86B
:101C1000A090B9F5804F00F0778200F21984B9F1F5
:101C2000000F10D0B9F5005F40F01C84754B9B6A23
:101C300003F00303032B00F01584002106F10800D4
:101C4000FFF7C4F90546002D40F037836D4A936DC8
:101C500023F4604343EA0903936521070CD5D6F8C2
:101C60008490B9F5805F00F07082664A536D23F46A
:101C7000405343EA09035365E2060CD5D6F8989021
:101C8000B9F5807F00F051825E4A936D23F4407372
:101C900043EA09039365230323D5D6F8A490B9F545
:101CA000803F00F0D681B9F5003F10D0B9F1000FA8
:101CB00040F0DD80534B9B6A03F00303032B00F0DD
:101CC000D680494606F10800FFF780F90546002D49
:101CD00040F0EC824B4A936D23F4403343EA09030E
:101CE000936560030FD5D6F88890B9F5001F00F012
:101CF0007D81B9F5401F00F0F880B9F5801F00F034
:101D0000EF8001273D46E1031FD5D6F85090B9F189
:101D1000000F00F04681B9F5803F40F08580394BD7
:101D20009B6A03F00303032B7ED0022106F1080017
:101D3000FFF74CF90546002D40F03B81314AD36C4A
:101D400023F4803343EA0903D364A20070D4A303CD
:101D50005AD43D46E70206D52A4A716F136D23F027
:101D600000430B431365E00007D5264AD6F8B810A8
:101D7000136923F480430B431361A10206D5214A62
:101D8000F16E136D23F080730B431365620009D568
:101D90001C4B1A6922F400421A611A69D6F8BC1069
:101DA0000A431A61002C06DA164A716DD36C23F0CF
:101DB00040530B43D364230207D5124AD6F88C1044
:101DC000536D23F440030B43536518F0010F40F0AB
:101DD000028318F0020F40F0DB8218F0040F40F08D
:101DE000EA8218F0080F40F0C28218F0100F40F09D
:101DF000AE8218F0200F40F09982281E18BF0120F3
:101E0000BDE8F88300440258D6F88030B3F5807FEF
:101E100000F0D18040F2E68023F48072B2F5007FBA
:101E200000F0CE80012595E70127A2003D468ED522
:101E3000B24B9B6A03F00303032B06D0022106F189
:101E40002800FFF731F9002881D001277FE7AB4A4E
:101E5000D36A43F40033D362002D40F0BB80A74A1D
:101E6000136D23F0405343EA09031365D5E50127B9
:101E70003D4636E7A14B9B6A03F00303032B3FF477
:101E800021AE012106F10800FFF7A0F80546002D5C
:101E900040F00682994A536D23F0380343EA090360
:101EA000536511E6856EB5F5001F00F0558300F20D
:101EB000F782002D00F07A81B5F5801F40F0F482A2
:101EC0008E4B9B6A03F00303032B00F0ED8202218B
:101ED0000830FFF77BF80746002F00F06C8166E4BE
:101EE000864AD36A43F40033D362002D78D1834A03
:101EF000536D23F4401343EA0903536503E7804A13
:101F00008049136843F480731360086804E00B6829
:101F10001B1A642B00F2F7821368DB05F7D5002D3E
:101F200040F04F83754BD6F8B420186F504010F432
:101F3000407F0FD0186FD3F870C020F440704CF47D
:101F4000803CC3F870C0D3F870C02CF4803CC3F858
:101F500070C01867B2F5807F00F0248302F44073EC
:101F6000B3F5407F00F0108364490B6923F47C5380
:101F70000B61624BC2F30B02196F0A431A676FE5DC
:101F80005E4AD36A43F40033D3623D46002D40F0ED
:101F90004C815A4A136D23F0070343EA0903136582
:101FA00015E4564AD36A43F40033D362002D3FF45C
:101FB000C5AE2F46C9E65149CA6A42F40032CA6228
:101FC000002D7FF4C7AE4D494A6D22F44072134391
:101FD0004B65BEE62F4620E52F463EE52F4691E4B1
:101FE0002F4690E6002B7FF41DAFE9E7434B9B6A39
:101FF00003F00303032B3FF484AE012106F1280014
:10200000FFF752F80546002D3FF471AFE8E73B4B70
:102010009B6A03F00303032B00F00882012106F101
:102020002800FFF741F80546002D3FF4DDAC41E103
:10203000324B9B6A03F00303032B00F06082022102
:1020400006F10800FEF7C2FF0546002D3FF453AC31
:10205000C4E72A4B9B6A03F00303032B3FF407AF4B
:10206000022106F12800FFF71FF80546002D3FF476
:1020700031AE1BE1214B9B6A03F00303032B00F0FD
:10208000FF81012106F12800FFF70EF80546002D1B
:102090003FF482AC01E1194B9B6A03F00303032B6D
:1020A00000F07C82022106F10800FEF78FFF054652
:1020B000002D3FF4CBAC8FE7104B9B6A03F003037A
:1020C000032B00F0A281022106F12800FEF7ECFFAD
:1020D0000546002D3FF46AADDDE0084B9B6A03F036
:1020E0000303032B00F0B081022106F12800FEF764
:1020F000DBFF0546002D3FF481ADD9E000440258D6
:1021000000480258802C0024C24B9B6A03F0030352
:10211000032B00F0A781022106F12800FEF7C4FF7F
:102120000546002D3FF492ADC7E0BA4B9B6A03F021
:102130000303032B07D0022106F12800FEF7B4FFAA
:1021400000283FF4A1AD01279EE5B24B9B6A03F046
:102150000303032B07D0022106F12800FEF7A4FF9A
:1021600000283FF482AD01277FE5AA4AD36A43F4F1
:102170000033D362002D3FF475AB2F46FFF779BBD8
:10218000A44AD36A43F40033D362002D3FF4DCAB9E
:102190002F46FFF7E0BB9F4AD36A43F40033D36274
:1021A000002D3FF436AB2F46FFF73ABB994AD36A6E
:1021B00043F40033D362974A136D23F440132B4347
:1021C0001365FFF7F3BA934B9B6A03F00303032BEA
:1021D00000F06281002106F12800FEF765FF054648
:1021E000002D3FF468AB2F46FFF76CBB894B9B6A11
:1021F00003F00303032B00F07A81002106F128008D
:10220000FEF752FF0546FFF79CBB824B9B6A03F02B
:102210000303032B3FF4D9AA002106F12800FEF79F
:1022200043FF0546002D3FF4B4AE2F46FFF7CFBA6B
:10223000784B9B6A03F00303032B00F040810021DD
:1022400006F12800FEF730FF0546FFF7DFBA714BB5
:102250009B6A03F00303032B00F03D81002106F18C
:102260002800FEF721FF0546FFF7F9BA694B9B6A84
:1022700003F00303032B3FF4A8AA002106F1080092
:10228000FEF7A4FE054681E6624AD36A43F40033B2
:10229000D362FFF70DBB2F468FE42F46FFF783BBBA
:1022A0002F4611E42F4660E42F4634E42F4618E50C
:1022B0002F46AAE42F46FFF79EBB2F46CDE4554B91
:1022C0009B6A03F00303032B00F05681012106F102
:1022D0002800FEF7E9FE0546002D3FF43FACE1E79C
:1022E0004C4B9B6A03F00303032B00F0498101214F
:1022F00006F12800FEF7D8FE0546002D3FF404AC99
:10230000D2E7444B9B6A03F00303032B3FF4DAABA1
:10231000012106F12800FEF7C7FE0546002D3FF417
:10232000B9ADBDE7012518F0200F0DD0394B9B6AE0
:1023300003F00303032B07D0022106F12800FEF768
:10234000B3FE00283FF459AD0120BDE8F883314BBE
:102350009B6A03F00303032BE4D0012106F128005C
:10236000FEF7A2FE00283FF444AD0546DBE7294B0B
:102370009B6A03F00303032B00F0DE80002106F1CB
:102380002800FEF791FE00283FF42FAD0546D4E06B
:10239000204B9B6A03F00303032B00F0CB80012149
:1023A00006F10800FEF712FE002818BF054618F0D7
:1023B000040F3FF416AD174B9B6A03F00303032B86
:1023C00000F0C880022106F10800FEF7FFFD00289A
:1023D00018BF054605E50F4B9B6A03F00303032B6B
:1023E00000F0A680002106F10800FEF7EFFD0028AE
:1023F00018BF0546EDE429F08053B3F1804F3FF458
:10240000D2ABB9F1405F3FF4CEAB01273D46FFF7B9
:10241000D4BB00BF0044025829F08053B3F1804F71
:102420003FF4DFAAB9F1405F3FF4DBAA01273D4644
:10243000FFF7E1BA29F48063B3F5805F3FF4DBABCB
:10244000B9F5406F3FF4D7AB01273D46FFF7DDBB41
:1024500029F40053B3F5004F3FF4F5ABB9F5C04F85
:102460003FF4F1AB01273D46FFF7F7BB29F480337A
:10247000B3F5802F3FF48DAAB9F5403F3FF489AA08
:1024800001273D46FFF78FBAB9F1407F3FF410AA0C
:10249000B9F1806F3FF40CAA01273D46FFF712BA4D
:1024A000B5F5401F3FF487AE0127FFF780B9B9F1BA
:1024B000C00F3FF4ABA9B9F5807F3FF4A7A901276E
:1024C0003D46FFF7ADB9B9F5C00F3FF4C8A9B9F55E
:1024D000000F3FF4C4A901273D46FFF7CAB9B9F57B
:1024E000405F3FF42EAAB9F5804F3FF42AAA012796
:1024F0003D46FFF730BAB9F1300F3FF4F9A9012793
:102500003D46FFF7FFB903273D46FFF7A9BA2E4B1B
:102510009B6A03F00303032B3FF47DAA012106F11C
:102520000800FEF753FD0546002D3FF498AC51E539
:1025300001254EE4012550E4012518F0100F08F0A4
:1025400010037FF404AF08F0200853EA08033FF4B7
:10255000FBAEEBE6012544E41B4B9B6A03F003034F
:10256000032BA1D002212830FEF79EFD0746002F45
:102570003FF421AEFFF71BB901273D46FFF7F5BA3F
:1025800001273D46FFF7C7BA0F48104B016903EA20
:10259000121321F47C510B430361EAE401273D4609
:1025A000FFF75BBAD1F800E041F2883C064804E04E
:1025B0000B68A3EB0E036345A5D8036F9B07F7D504
:1025C000D2E42F46FFF74CBA00440258CFFFFF0079
:1025D000474A70B4946A956AD66A15F47C3FC5F38D
:1025E0000533D16B5BD0C1F3CC01C6F3001604F008
:1025F000030407EE903A06FB01F1012CB8EEE77AEE
:1026000006EE901AFAEEE96A03D0022C6AD0002C8A
:102610004AD0DFED387A87EE876A936BC3F30803FD
:1026200007EE903AF7EE005AF8EEE77A77EEA67AE0
:1026300077EEA57A67EE867A2D4AB7EE006A936B3D
:10264000C3F3462307EE103AB8EEC77A70BC37EEF4
:10265000067AC7EE876AFCEEE66AC0ED006A936B05
:10266000C3F3064307EE103AB8EEC77A37EE067AA0
:10267000C7EE876AFCEEE66AC0ED016A936BC3F3AE
:10268000066306EE903AF8EEE66A76EE866A87EE24
:10269000A67AFCEEC77A17EE903A8360704770BC5A
:1026A000C0E900338360704713689B061DD514682A
:1026B000F7EE005A936B1049C4F3C102C3F3080349
:1026C000D14007EE903A06EE101AF8EEE77AB8EE2F
:1026D000C66A77EEA66AC6EE077A36EEA57A67EE88
:1026E000877AA9E7DFED057A95E7DFED057A92E7CE
:1026F000004402580024744A0090D0030024F44A95
:102700000024744C474A70B4946A956AD66A15F0EE
:102710007C7FC5F30553516C5BD0C1F3CC01C6F38C
:10272000002604F0030407EE903A06FB01F1012CA9
:10273000B8EEE77A06EE901AFAEEE96A03D0022CB8
:102740006AD0002C4AD0DFED387A87EE876A136CA6
:10275000C3F3080307EE903AF7EE005AF8EEE77A73
:1027600077EEA67A77EEA57A67EE867A2D4AB7EEEF
:10277000006A136CC3F3462307EE103AB8EEC77A2B
:1027800070BC37EE067AC7EE876AFCEEE66AC0EDEB
:10279000006A136CC3F3064307EE103AB8EEC77A2B
:1027A00037EE067AC7EE876AFCEEE66AC0ED016A8C
:1027B000136CC3F3066306EE903AF8EEE66A76EE23
:1027C000866A87EEA67AFCEEC77A17EE903A8360A7
:1027D000704770BCC0E900338360704713689B0684
:1027E0001DD51468F7EE005A136C1049C4F3C102EA
:1027F000C3F30803D14007EE903A06EE101AF8EE44
:10280000E77AB8EEC66A77EEA66AC6EE077A36EEC3
:10281000A57A67EE877AA9E7DFED057A95E7DFED20
:10282000057A92E7004402580024744A0090D003CD
:102830000024F44A0024744C0269836870B504468D
:1028400005681343C069626986B029681343AC4ABE
:1028500003430A40616A1343E2682B606B6823F408
:1028600040531343A2696B60A64B9D4200F0668102
:10287000236AAE681A43A44B33401A43AA60EB6A3A
:1028800023F00F030B43EB62A04B9D4228D0A04BDB
:102890009D421AD09F4B9D4217D09F4B9D4214D012
:1028A0009E4B9D4211D09E4B9D4219D09D4B9D4207
:1028B0000BD09D4B9D4208D0012000234FF0011208
:1028C0006367A266A36706B070BD984B5B6D03F0AB
:1028D0000703052BF0D8DFE803F09F7F8A925F792A
:1028E000924B5B6D03F03803282BE5D801A252F818
:1028F00023F000BFA12A0408B9280408B928040855
:10290000B9280408B9280408B9280408B928040813
:10291000B9280408D9290408B9280408B9280408E2
:10292000B9280408B9280408B9280408B9280408F3
:10293000B9280408EF290408B9280408B9280408AC
:10294000B9280408B9280408B9280408B9280408D3
:10295000B9280408FF290408B9280408B92804087C
:10296000B9280408B9280408B9280408B9280408B3
:10297000B928040899290408B9280408B9280408C2
:10298000B9280408B9280408B9280408B928040893
:10299000B9280408CD290408B0F5004F644853D085
:1029A000644B626803EB4103B3F84030B0FBF3F0D3
:1029B00000EB52004FF6EF73B0FBF2F0A0F1100203
:1029C0009A423FF679AFE860002076E7B0F5004F15
:1029D0003AD04FF40040E3E7B0F5004F2DD003A804
:1029E000FFF7F6FD04980028EED0616AD8E7B0F54D
:1029F000004F71D06846FFF785FE0198F3E7B0F508
:102A0000004F5ED0494B1A68920639D51B684A4878
:102A1000C3F3C103D840C3E7B0F5004F32D0FEF78F
:102A20007FFE424A434BD269C2F30212134493F829
:102A3000303003F01F03D840D5E703A8FFF7C8FDE7
:102A400004980028C0D0616A3A4B626803EB4103E6
:102A50004FF6EF71B3F84030B0FBF3F0530803EBDF
:102A60004003B3FBF2F3A3F110028A423FF624AF16
:102A700023F00F02C3F3420392B21343EB60A3E7C8
:102A80002D488DE7FEF74CFE284A2A4BD269C2F347
:102A90000212134493F8303003F01F03D840D0E7FC
:102AA000B0F5004F1DD0FEF73BFE204A214BD26906
:102AB000C2F30222134493F8303003F01F03D840CE
:102AC00091E71A4B1A68900640F1A5801B681A48D6
:102AD000C3F3C103D840B7E76846FFF713FE019878
:102AE000AFE7FEF71DFE114A124BD269C2F3022274
:102AF000134493F8303003F01F03D840A1E700BF20
:102B0000F369FFCF000C0058FFF4FF1100100140E3
:102B10000044004000480040004C0040005000408D
:102B20000014014000780040007C0040004402583E
:102B300000093D00C0980C080090D003A868374BEE
:102B400003401343364AAB60EB6A23F00F030B4399
:102B5000EB62936D03F00703052B3FF6ADAEDFE8A4
:102B600003F0413C3303524F2D4B1A6895064CD469
:102B70002C482D4B656803EB410305EB4501B3F889
:102B80004020B0FBF2F399423FF696AEB3EB053F1F
:102B90003FF692AE0023194681F0F0FD2A46090265
:102BA000030241EA1061680818184FF0000341F170
:102BB000000181F0E3FD1D4BA0F540729A423FF603
:102BC0007BAE1B4BD860FFE66846FFF79BFD019884
:102BD00000283FF4F9AE616ACBE703A8FFF7F8FCE1
:102BE0000498F5E7FEF79CFD0D4A0F4B126AC2F3FD
:102BF0000212134493F8303003F01F03D840E7E784
:102C00004FF40040B5E70B48B3E71B680548C3F332
:102C1000C103D840ADE7034816E700BFFFF4FF113A
:102C2000004402580090D003C0980C08FFFC0F002D
:102C3000000C005800093D00474A70B4946A956A38
:102C4000D66A15F47C7FC5F30513516B5BD0C1F3D5
:102C5000CC0106F0010604F0030407EE903A06FBEF
:102C600001F1012CB8EEE77A06EE901AFAEEE96A65
:102C70004ED0022C6DD0002C4DD0DFED387A87EE8F
:102C8000876A136BC3F3080307EE903AF7EE005A16
:102C9000F8EEE77A77EEA67A77EEA57A67EE867A8F
:102CA0002D4AB7EE006A136BC3F3462307EE103AC2
:102CB000B8EEC77A70BC37EE067AC7EE876AFCEECC
:102CC000E66AC0ED006A136BC3F3064307EE103AE1
:102CD000B8EEC77A37EE067AC7EE876AFCEEE66A88
:102CE000C0ED016A136BC3F3066306EE903AF8EE8B
:102CF000E66A76EE866A87EEA67AFCEEC77A17EE6B
:102D0000903A8360704770BCC0E9003383607047BD
:102D1000DFED137AB3E713689B06AED51468F7EEC0
:102D2000005A136B0F49C4F3C102C3F30803D14027
:102D300007EE903A06EE101AF8EEE77AB8EEC66A99
:102D400077EEA66AC6EE077A36EEA57A67EE877A40
:102D5000A6E7DFED057A92E7004402580024744CA0
:102D60000024744A0090D0030024F44AF0B5354A98
:102D7000B0F1804F344DA0EB02020368A0EB050ECA
:102D80004C69B2FA82F28F68BEFA8EFE0E684FEA84
:102D900052124FEA5E1E1FD0F2B9DFF8B8C060458C
:102DA00037D00CF5806C604533D00CF5806C6045F5
:102DB00012D0BEF1000F0FD1244D254A904218BF0A
:102DC000A8422AD002F58062904226D023F08003E8
:102DD000C76286621C4314E04D6823F07003D1F88B
:102DE0000CC02B43C762866223F4407343EA0C0392
:102DF00023F080031C4312B9BEF1000F16D00B69FB
:102E000003630368012243F004030360426104602A
:102E1000F0BD23F070034A681343CA6823F440737B
:102E2000C7621343866223F080031C43074A084BA2
:102E3000984218BF9042E2D003F580639842DED0FA
:102E4000DFE700BF000001400004014000400140F6
:102E50000044014000040040026810B452E8003F02
:102E600023F4907342E800310029F7D1144C02F1A9
:102E7000080353E8003F234002F1080C4CE80031FE
:102E80000029F4D1C36E012B08D0002320225DF865
:102E9000044BC0F88C204367C366704752E8003F7C
:102EA00023F0100342E800310029EED052E8003F41
:102EB00023F0100342E800310029EFD1E5E700BF1D
:102EC000FEFFFFEF436BDA69F0B5970683B0044667
:102ED00042D5586AE36AC0B2002B00F09580216B9E
:102EE0009847636B1A681D4622F480721A609A68CC
:102EF00022F001029A609A6942F008029A61DA6946
:102F0000D6072DD4DA69900701D502221A62DA6950
:102F1000510701D504221A62DA69120701D5082285
:102F20001A62DA69170612D5D4F8BC20212A0ED00D
:102F3000D4E909128A4273D0A169895C0132C9B20D
:102F400099622169B2FBF1F001FB1022A262DA69F9
:102F5000560608D403B0F0BDDA691D46D607D1D5B0
:102F600001221A62CEE7DA6940F60F0C1E6804F1FE
:102F7000340012EA0C0F996836D0B24F0F4040F07F
:102F8000BB80DFF8CCC216EA0C0F40F06381D4F8A6
:102F9000A050012D4CD0D50202D54F0200F167811F
:102FA000150606D501F4000106F080050D4340F03A
:102FB00043815106CED57206CCD553E8002F22F0BE
:102FC000400243E8002141B1626B52E8003F23F028
:102FD000400342E800310029F7D120220023C4F841
:102FE000BC20C4F8AC30B5E79506D0D506F0200576
:102FF00001F080573D43CAD0D4F8A830002BA9D0A7
:1030000003B0BDE8F0401847E3696269D054E36952
:10301000E2680133B3FBF2F102FB1133E36160E7D5
:103020000022A4F88A201A6822F080021A608EE733
:10303000D706B0D5F506AED51022B4F890501A6276
:103040009A68570640F11D81D4F8B40001684A68B7
:1030500092B2002A00F05081AA4280F04D81C169ED
:10306000A4F89220B1F5807F40D053E8002F22F4DD
:10307000807243E8002141B1626B52E8001F21F4E5
:10308000807142E80015002DF7D103F1080252E8E3
:10309000002F22F0010203F1080545E80021002974
:1030A000F3D103F1080252E8002F22F0400203F1AD
:1030B000080545E800210029F3D12022C4F8C020EA
:1030C000C4F8A01053E8002F22F0100243E80026B5
:1030D000002EF7D15C490D6840B190F83530022BD5
:1030E00000F01381802380F8346043650223C4F824
:1030F000A430B4F892302DE712F0010F0CD016F482
:10310000807F09D04FF0010CC3F820C0D4F8C4C0B0
:103110004CF0010CC4F8C4C012F0020F7BD112F0C5
:10312000040F0CD011F0010F09D04FF0040CC3F8BC
:1031300020C0D4F8C4C04CF0020CC4F8C4C012F0D3
:10314000080F0CD006F0200C5CEA070C07D008270B
:103150001F62D4F8C47047F00807C4F8C47017059C
:103160000AD5770108D54FF400671F62D4F8C43040
:1031700043F02003C4F8C430D4F8C430002B3FF42B
:10318000E9AE92060CD506F0200601F080510E4300
:1031900006D0D4F8A8301BB101909847656B019810
:1031A000D4F8C420AB6802F0280203F040031343B4
:1031B00061D0FFF751FEAB685B067FF5CBAE05F142
:1031C000080353E8003F23F0400305F1080141E8FC
:1031D000003262B1626B02F1080353E8003F23F052
:1031E000400302F1080040E800310029F3D1D4F88F
:1031F000B40000283FF4AEAE90F83520134B022AFD
:1032000003653BD1FCF7B2FF00283FF4A3AED4F82E
:10321000B400036DF4E611F0010F90D04FF0020CF2
:1032200012F0040FC3F820C0D4F8C4C04CF0040C52
:10323000C4F8C4C083D078E7D4F8AC30002B7FF456
:10324000DFAE87E601000010802C00243512040850
:103250002001000412F0010F3FF471AF16F4807FDB
:103260007FF450AF12F0020F7FF469AF57E74FF4CD
:1032700080121A626EE6C4F8C4306BE680224265A2
:10328000BEE6B4F89220B4F8921092B289B2AA4283
:103290003FF460AE00293FF45DAE53E8002F22F406
:1032A000907243E8002141B1626B52E8001F21F4A3
:1032B000907142E800100028F7D1954803F1080208
:1032C00052E8002F024003F1080545E800210029DB
:1032D000F4D12022C4F8A810C4F8C020C4F8A0106B
:1032E00053E8002F22F0100243E800210029F7D113
:1032F0000223C4F8A4302DE6AA427FF42BAEC369A2
:10330000B3F5807F7FF426AEF2E70368814A824EF0
:10331000824FB34218BF934206F118060CBF012238
:103320000022B34208BF42F001021836B34208BF80
:1033300042F001021836B34208BF42F001021836CB
:10334000B34208BF42F0010206F55676B34208BF09
:1033500042F001021836B34208BF42F001021836AB
:10336000B34208BF42F001021836B34208BF42F030
:1033700001021836B34208BF42F001021836B342C8
:1033800008BF42F001021836B34208BF42F0010202
:10339000A6F59266BB4218BFB34207F592670CBF11
:1033A00001260026BB4208BF42F0010256EA02078E
:1033B00079D0D3F800C02CF01E0CC3F800C0D3F8AD
:1033C00014C02CF0800CC3F814C0D0F860C076BBD9
:1033D000D0F860C0DCF8006026F48076CCF800609D
:1033E0001A6822F001021A6003E00A68521B052ADB
:1033F00024D81A68D607F8D4D0E9165101F01F0175
:103400002FB33F238B40AB60C36ED0E919215160CD
:1034100033B11A68016F22F480721A60436F4B60F7
:103420000122002380F8352080F834305EE6DCF895
:10343000002022F48072CCF80020D1E72021032262
:103440000023416580F8343080F835204EE6344A58
:10345000344EB34218BF934206F114060CBF01224A
:103460000022B34208BF42F001021436B34208BF43
:1034700042F001021436B34208BF42F00102143692
:10348000B34208BF42F00102012606FA01F1696069
:1034900025498B4208BF42F00102002AB4D1234AD9
:1034A0009342B1D0BCE71E4EDFF878C0634518BF29
:1034B000B3420CF1140C0CBF01260026634508BF73
:1034C00046F001060CF1140C634508BF46F00106F6
:1034D0000CF1140C634508BF46F001060CF1140C06
:1034E000634508BF46F00106D3F800C02CF00E0C6F
:1034F000C3F800C0DFF830C0634508BF46F00106DE
:10350000002E7FF465AF094EB3423FF461AF67E729
:10351000FEFFFFEF4000024058000240280002403A
:10352000085402581C5402588054025894540258AB
:103530004B4B10B41B684B4CA4FB03435B0A03FBCF
:1035400002F25AB18446531E4748DCF83420013B4E
:10355000024201D0920406D55C1CF6D14FF0004027
:103560005DF8044B7047DCF834305C0741D4DCF87C
:103570003430D80709D43D4BCCF83830DCF8103063
:10358000DBB2994205D00120EAE70123CCF83830BC
:10359000F9E7DCF81430364818400028E0D0002B5A
:1035A0002CDB5A002DD49C002DD4D9002DD41A0127
:1035B0002ED45C012FD4D90130D41A0231D45C024C
:1035C00032D499023CD4DA0237D45C0332D4990362
:1035D0002DD4DA0340D41C043BD4590436D49A04C5
:1035E00031D413F0080F0CBF4FF480304FF40000BB
:1035F000B6E704231846CCF83830B1E74FF0007036
:10360000AEE74020ACE78020AAE74FF48070A7E740
:103610004FF40070A4E74FF48060A1E74FF400601E
:103620009EE74FF480509BE74FF4005098E74FF42B
:10363000802095E74FF4003092E74FF400408FE789
:103640004FF480408CE74FF4800089E74FF400107E
:1036500086E74FF4801083E74FF4002080E700BF37
:1036600000000024D34D621045002000C50020005A
:1036700008E0FFFD82B00023019302E00369002B04
:1036800009DB019B01330193019BB3F1706FF5D905
:10369000032002B070478901002341F0200101930B
:1036A000016103E0036913F0200307D0019B01339C
:1036B0000193019BB3F1706FF4D9E9E7184602B0AA
:1036C000704700BF82B00023019302E00369002B22
:1036D00009DB019B01330193019BB3F1706FF5D9B5
:1036E000032002B07047002210230192036103E01F
:1036F000036913F0100307D0019B01330193019B71
:10370000B3F1706FF4D9EBE7184602B0704700BF11
:1037100082B00023019302E00369002B09DB019BC7
:1037200001330193019BB3F1706FF5D9032002B00F
:10373000704700230193036943F00103036103E031
:10374000036913F0010307D0019B01330193019B2F
:10375000B3F1706FF4D9E9E71846E8E72DE9F843CB
:10376000056807460C46C5F31009B9F1000F35D1BD
:10377000844B4FF6FF72B3F8803093424FD0002B4A
:103780004DD0814A02EA432808F10068454534BF1C
:103790004FF001084FF002087C4B9D4206D903F51B
:1037A00000339D4200F2C4804FF00109784E337E11
:1037B000012B0FD00123B8F1010F33764FF0000336
:1037C000F36132D0022077F00DFC002800F09180E8
:1037D000002333764FF0FF30BDE8F8836C4E337E24
:1037E000012B49D00123337605F17843B3F5801FCF
:1037F00046D3A5F10163B3F5801F3DD2002302201B
:10380000F36177F0EFFB00286DD1624A4FF00208B8
:10381000D2F80C3143EA0803C2F80C313DE0B5F1AF
:10382000016F63D3052015F033F9404677F0DAFBDA
:103830000028CDD14046DFF85C81D8F80C3023F465
:10384000E663C8F80C30D8F80C3043EA092343F09B
:10385000A403C8F80C3077F0C5FBD8F80C204E4B09
:103860001340C8F80C300028B2D105F1784301228A
:10387000B3F5801F327603D36FF00100BDE8F88303
:1038800000230120F36177F0ADFB60BB414A4FF0AC
:103890000108D36843F00203D360BFF36F8FBFF317
:1038A0004F8F04F1200254F8043B944245F8043B46
:1038B000F9D1BFF36F8FBFF34F8F404677F092FB84
:1038C000B8F1010F334A2ED0D2F80C3123F00203A5
:1038D000C2F80C31002333760028CDD13B68203369
:1038E0003B60BDE8F88300233376C5E74FF001085D
:1038F00052E7DFF8A0800220D8F80C3123F4E66309
:10390000C8F80C31D8F80C3143EA092343F0A4037A
:10391000C8F80C3177F066FBD8F80C211E4B134029
:10392000C8F80C319FE7D36823F00203D360D1E7D6
:1039300003F500339D4211D903F500339D4210D9A0
:1039400003F500339D4206D903F500339D420BD8A1
:103950004FF005092AE74FF0040927E74FF0020965
:1039600024E74FF0030921E703F500339D4206D910
:10397000B5F1016FBFF456AF4FF0070916E74FF0EE
:10398000060913E700E8F11F00FE1F00FFFF010812
:10399000802C002400200052FBF8FFFF2DE9F04F9F
:1039A000F427A04D89B0044600FB07F705F108088D
:1039B000EE194744F08977F003F9B08977F000F900
:1039C000D6F8F83008214FF4403C012B3363B2683D
:1039D0004FF0030ED4BF00230123B26173620023B2
:1039E000C6E907C14FF48061336486F83430F1636F
:1039F0004FF48071B363B3620393B98486F8503097
:103A00004FF48053C6E911E3F36E002B00F0B7804A
:103A100093689F0003D59168834B0B409360936834
:103A2000DE0015D42B6881499B099068A1FB031324
:103A30007F499B090140013341F08051916003931C
:103A4000039B2BB1039B013B0393039B002BF9D1F9
:103A50009368D8001DD4F423012703FB0453D96EC7
:103A600041F01001D966196F39431967936813F053
:103A7000040F4FF0F40303FB04530CD0DB6EF4236C
:103A800003FB0453DA6E42F01002DA6609B0BDE8B7
:103A9000F08F0027EAE7D96E11F01009EFD1D96E47
:103AA00021F4817141F00201D9669368D90713D4DA
:103AB000604B9A4200F0D58203F580739A4200F081
:103AC000D0825D4B9B68D80706D45C498B6823F491
:103AD0007C1343F440338B60594B5A491B68D368BD
:103AE000194043F208030B43D360936813F0040FAB
:103AF000936848D0F42303FB04539B69F42202FB30
:103B00000452516A012900F07A821A6B22F00F02E6
:103B10001A63F42202FB0452D16E21F0030141F03A
:103B20000101D166002FB1D192F8681004970129E4
:103B3000ACD0012182F868109968890700F188806B
:103B40009968CE0740F18580996801F00D0101293F
:103B500000F02284D36E43F01003D366136F43F05A
:103B600001031367F423002103FB0453DA6E83F887
:103B7000681042F01002DA6609B0BDE8F08F3367D2
:103B800086F8683044E71907B4D4D1682E4B0B404F
:103B900043F00303D360136923F001031361F4239B
:103BA00003FB0453D96C136923F070430B43136177
:103BB000204B9A4200F04D8203F580739A4200F048
:103BC00048821E4B9B6813F4403F14BF012300231F
:103BD000002B00F01C82FDF7A3FDF42303FB04532C
:103BE000DB69B3F5003F00F0B382B3F5403F00F06E
:103BF0003984B3F5803F00F0AB82114B41F20302F0
:103C00001968F423B2EB114F03FB04539B69C0F016
:103C1000E5830E4A904240F2FA839A6842F4807239
:103C20009A606BE700000024C0FFFF5F632D3E0534
:103C3000C0FFFF6F0020024000600258006302587E
:103C40000010005C03C0F0FFFCBFFFFF002D31013E
:103C50009A68F420B149B24A00FB0450C66E314064
:103C600041F00201C16699680A4042F000429A6040
:103C70009A68AC49002AC0F2A4814FF0F40BAA4B19
:103C8000DFF8D0A20BFB04FBDFF8CCE2A74E05EB7C
:103C90000B0CA748A749DCF81020524518BF9A42E0
:103CA0000BF1740ACCF87C200CBF01230023C24422
:103CB000724508BF43F001034FF4005EB24208BFF3
:103CC00043F001034FF48066824208BF43F00103D2
:103CD000DCF814008A4208BF43F001031831CCF825
:103CE00080008A4208BF43F0010318318A4208BFAE
:103CF00043F0010301F556718A4208BF43F0010306
:103D000018318A4208BF43F0010318318A4208BFC4
:103D100043F0010318318A4208BF43F00103183110
:103D20008A4208BF43F00103DCF86C1021F0030164
:103D300041F00101CCF86C107F498A4208BF43F082
:103D4000010318318A4208BF43F0010300218CF8B7
:103D50006810CCF8A010CCE92111CCE92A114FF45D
:103D60000061CCE923614FF48071744ECCE925E108
:103D70004FF400314FF0030ECCF89C10CCF8A4E0C7
:103D800031681BB96E4B9A4240F061864FF0F40CDB
:103D900002234FF0000E0CFB045C8CF8B13013686A
:103DA0008CF8B0E023F00103136004E033685B1A81
:103DB000052B00F21A811368DB07F7D4614BD2F8A8
:103DC00000E0DFF8A0C11B685F4903EA0C0C5F4B01
:103DD0000EEA0101BCF1005F43EA01030DD32E2876
:103DE00040F24C813F38132807D8DFF87CC12CFA09
:103DF00000F0C00701D5564B0B4313605046536982
:103E000023F007035361FCF731F9F42303FB045358
:103E1000D3F8D8203F2302F01F0293408360F4239D
:103E2000414903FB0453DA6F4A4B9A4218BF8A4256
:103E30000CBF0121002100F0E082474B9A4200F0C4
:103E4000218118339A4200F0108318339A4200F00F
:103E5000D28318339A4200F0D68318339A4200F086
:103E6000118418339A4200F01D8403F556739A4268
:103E700000F01D8418339A4200F0178418339A42D8
:103E800000F0C38518339A4200F0328618339A4204
:103E900000F0378618339A4200F0688618339A4249
:103EA00000F0618618339A4200F07D872B4B9A42CE
:103EB00000F0448614339A4200F0408614339A424C
:103EC00000F0C28714339A4200F0BE8714339A423E
:103ED00000F0B88714339A4200F0B68714339A4240
:103EE00000F0B28714339A4200F0AE870BF1100B4A
:103EF000F422002102FB045208EB0B03C2F864A079
:103F00004FF0010AC2F8B430154BC2F8D01003F1DB
:103F1000480B82F8B1A0CDE900762BE0FDEEFFFF63
:103F2000C0FFFE3F00F8C3251000024058000240C9
:103F3000700002408800024088040240802C002467
:103F4000B80402400010005C3F8010FE002D02000B
:103F5000002D120028000240400002400854025880
:103F6000A02C00240000FFFF0F030F000C339B4523
:103F700000F0F280597D0029F8D093F90D10A1428C
:103F8000F4D1002100981F6905918B499E7D01EBBA
:103F90008001886D92F8681001293FF477AD91692E
:103FA00082F868A0D1F808C01CF0040F00F01C8152
:103FB000D36E4FF0000143F0200382F86810D366FF
:103FC00064E5049A01320492049A8A42FFF450AEE6
:103FD000F423002103FB0453DA6E83F8681022F007
:103FE000120242F01002DA6650E5F4232021032287
:103FF00003FB0453C3F8D01083F8B12046E5126BDD
:10400000196B013A21F00F010A431A6381E56B4AEB
:10401000936D03F44033B3F5803F00F09080B3F527
:10402000003F00F031821BB913681A0100F12D83A3
:10403000634B1A6841F20303B3EB124F80F0E78140
:10404000F42303FB04539B699A6822F440729A603C
:1040500054E55C4B9B6813F4403F14BF01230023DD
:10406000B6E5594B996803F580739B68DB073FF50C
:1040700033ADCE073FF530AD524927E528287FF60E
:10408000BCAEB8E64FF00209504B4FF0010E0021D4
:104090004B440EFA09FEDFF844914FEA830CF420FA
:1040A00000FB0450D0F88430C0F8E4E0802BC0E975
:1040B00037C900F02181D0F88030D8B2013B072BFE
:1040C000CCF80000C9F804E000F21D81404BDFF895
:1040D00010C1624518BF9A420CF1140C0CBF0123A9
:1040E0000023624508BF43F001030CF1140C624544
:1040F00008BF43F001030CF1140C624508BF43F004
:1041000001030CF1140C624508BF43F0010300F1F8
:10411000FF3C13B9002900F0EE842E4901442E48DB
:104120008900F423012203FB045302FA0CF2C3E9D1
:104130003A10C3F8F02000230B604260D6E6136803
:104140009B007FF575AF05A8FEF7DCFA079854E5EC
:104150001B0CB0FBF3F050E5F4231B4A019E03FB5C
:104160000453D3F8F8109B69934200F0C28002F523
:104170008072934200F0BD80DFF868C0DCF8087000
:104180009A6850073FF582ACF42000FB045090F889
:104190006820012A3FF47AAC07F01F0740F2212281
:1041A0004FF0010EFA4080F868E012EA0E0240F08B
:1041B0003F8180F8682069E4C0980C0800440258E8
:1041C0000010005C0023024000200240008200102A
:1041D000305402583F960016405902588008024059
:1041E0004454025800630258002F4FEA976C0DDBCD
:1041F000C7F3130EBEF1000F40F013810AFA0CF85A
:10420000D1F81CE04EEA080EC1F81CE04FEA901EFF
:1042100001F1300800F01F000CF01F0C0EF00C0E26
:104220004FF01F090CFA00FC09FA00F958F80E00CB
:1042300020EA090040EA0C0048F80E00886810F0F7
:10424000040F886847D1000745D44FEAD75CC7F30D
:10425000045001F1140E4FF007080CF0040C06FA9C
:1042600000F908FA00F85EF80C0020EA080040EABD
:1042700009004EF80C008E48006800F07040B0F164
:10428000805FC86800D0C868086E4FEA876C00F08D
:10429000F840B0EB876F03D1086E20F0004008664D
:1042A000486E00F0F840844503D1486E20F000408D
:1042B0004866886E00F0F840844503D1886E20F08F
:1042C00000408866C86E00F0F840844503D1C86E8F
:1042D00020F00040C8668868C6071DD500990020F8
:1042E0000131C9B20091F42101FB045181F8680049
:1042F0003CE6DFF8E8C141E70023C0F88030CCF8A5
:104300000030C9F804E0F423002203FB0453C3E99E
:104310003A22C3F8F020E9E5D1F8C000C7F3130C46
:10432000002F20EA0C00C1F8C000D7DA61488142B2
:1043300000F0438100F58070814200F03E8100F181
:10434000C050DFF874E100F58440D0F808C0DEF812
:10435000088018F0010F40F02481DFF884810CF010
:10436000E079474500F02E83DFF87881474500F07B
:10437000FE82DFF874E17745B0D11CF4800FADD137
:104380004D4FB942AAD1816821F0E07141EA09019B
:1043900041F480018160A1E79968484A484E0A408B
:1043A00042F002029A6003221A6031689A68D207CA
:1043B0007FF54FAC3268521A022AF7D99A68D007B3
:1043C000F4D5F42303FB0453DA6E42F01002DA66EC
:1043D0001A6F42F001021A67FFF7C4BB394A9042D4
:1043E0007FF62EAE384A904242D89A6822F4407244
:1043F00042F480729A60FFF781BB5FFA82F9334B17
:10440000A9F11009A3FB09394FEA19193CE6F42375
:1044100003FB04539B699A6822F480729A60FFF749
:104420006DBB97FAA7F8B8FA88F80AFA08F8E7E631
:104430009A68D2075AD4D3F808E0254A1EEA020F38
:1044400000F0E480C36E43F01003C366036F43F0D3
:1044500001030367F423002203FB045383F868205D
:10446000FFF714BB8008FFF7C8BB4FF003090BE64A
:10447000184A90429A6800F2C18022F4407242F4D5
:1044800000729A60FFF73ABBD36C116803F0405397
:104490004E0702D5002B00F0FE800F4A1268D005AF
:1044A00003D5B3F1805F3FF4C3AD0B4A1268BFE59B
:1044B0000010005C0020024000600258C0FFFF7F37
:1044C000802C002421BCBE0041787D01ABAAAAAAA1
:1044D0003F00008081F0FA020044025800230240AD
:1044E000000084CB000052C70000B8CF7148181AF2
:1044F00018BF0120F426704A06FB0456D6F86CC09B
:104500000CEA020242F48072F26607B130B1F42282
:1045100002FB0452D06E20F48010D066F42202FB1D
:104520000452D06E10F4805000F0AA80106F20F07A
:1045300006001067F422614E614F02FB0452DFF85F
:1045400090C1506EC6641C26C0E90FC71E600026CD
:104550005F6882F8686047F010075F60576CDA6840
:1045600022F003023A43DA6090F83420012A0CD09A
:10457000012280F8342090F83520012A00F0B08024
:104580004FF4006380F834604365F4224D4B02FB26
:104590000452926991680B4043F004039360FFF763
:1045A00075BAF423002103FB0453DA6E83F8681014
:1045B00042F02002DA66FFF769BA4348DFF8148157
:1045C000DFF8F0E0D0F808C0D8F80880DEF808E09E
:1045D0001EF0010FE5D118F0010FE2D1DFF8F8E08D
:1045E00077453FF47BAEDFF8F4E077453FF476AEF5
:1045F0000CF0E079BDE64FF0040945E542F4407265
:104600009A60FFF77BBA4FF005093DE59A68DFF83D
:10461000B480284802EA0802181A42F0010218BFC2
:1046200001209A60D6F800E0DCF8082012F01F0F95
:1046300014BF024640F00102002A00F006821A6808
:10464000D2073FF557AF9A68D20705D49A6802EAB5
:10465000080242F001029A603268A2EB0E02022ABE
:10466000EDD91A68D207EAD4F42303FB0453DA6EB7
:1046700042F01002DA661A6F42F001021A67E9E6A8
:10468000106757E74FF00609FEE405A8FDF7A0FF05
:104690000598FFF7B2BA13680C48C3F3C103D840BA
:1046A000FFF7ABBA4FF00709EEE44FF0010909F14B
:1046B0000809E9E400210240FEF0FFFF5900040868
:1046C00055000408C0FFFF7F002302400090D00384
:1046D0000100040800200240000084CB000052C703
:1046E000AB4A4FF48C77DFF8D0E201EB810107FB96
:1046F000042C0222A74F403380F835204FEA810B6B
:1047000002684665BA4218BF7245866D0CBF4FF00D
:10471000010E4FF0000E00F086811837BA4200F00B
:1047200034821837BA4200F04B821837BA4200F090
:1047300035821837BA4200F0C1821837BA4200F009
:10474000B4821837BA4200F0A78207F55677BA420A
:1047500000F099821837BA4200F0F5821837BA4251
:1047600000F0E8821837BA4200F0DB821837BA420C
:1047700000F0CE821837BA4200F07C821837BA4275
:1047800000F06F821837BA4200F06282824FDFF881
:104790001C82424518BFBA4208F128080CBF012705
:1047A0000027424508BF47F0010708F114084245B9
:1047B00008BF47F0010708F11408424508BF47F059
:1047C000010708F11408424508BF47F00107D2F875
:1047D000008028F00108C2F80080DFF8D881424547
:1047E00008BF47F001071FB96C4FBA4240F0EE8294
:1047F000D0F86C80D0E919174F60B8F1000F00F0C5
:10480000E881DFF8B891664FDFF8B4A14A4518BFD8
:10481000BA42D0E91C170CBF4FF001094FF0000954
:104820004F60524514BF4F4649F00107BEF1000FDB
:1048300002D1002F00F0CD81C16D4FF03F0901F092
:104840001F0A816809FA0AF94029C6F80890166813
:1048500026F480261660C2F804B000F0F28093605F
:10486000C2F80CC0BEF1000F40F0D2804C4B9A420F
:1048700000F07F8118339A4200F0548118339A4235
:1048800000F04281474B9A4200F07682464B9A42B2
:1048900000F0628218339A4200F0FE8203F55673EC
:1048A0009A4200F0ED8218339A4200F0DD8218330C
:1048B0009A4200F0D78218339A4200F0D18218331E
:1048C0009A4200F0CB8218339A4200F0C582183326
:1048D0009A4200F0BF8218339A4200F067822E4B52
:1048E00032498A4218BF9A4201F128010CBF0123C4
:1048F00000238A4208BF43F00103116821F00E0132
:1049000041F00A0111602A498A4208BF43F00103BD
:1049100014318A4208BF43F0010314318A4208BFB0
:1049200043F00103116841F00401116021498A42FA
:1049300008BF43F0010313B9184B9A4212D1D0F8C3
:104940006C80036E1968C80303D5196841F480713F
:104950001960B8F1000F05D0D8F8003043F4807327
:10496000C8F80030136843F0010313600DE61CF033
:10497000807F7FF4B3AC71457FF4B0AC816821F0E7
:10498000E07141EA090141F080718160A6E400BF55
:1049900000000030280002401C5402589454025871
:1049A0004000024088000240A00002400854025823
:1049B00044540258805402581000024058000240EB
:1049C000700002401CF4000F7FF488AC71457FF446
:1049D00085AC816821F0E07141EA090141F40001F0
:1049E0008160BB482968B1FBF0F1013149000591B4
:1049F000059900293FF472AC009E05990139059193
:104A000005990029F9D1009668E44FF002094EE6B5
:104A1000136823F01E0343F016031360136843F07A
:104A2000080313608DE7176827F001071760D0F8B7
:104A30006C80D0E919174F60B8F1000F7FF4E1AE38
:104A4000FAE6C2F808C0D3600CE7104652E5A14B65
:104A5000A1498A4218BF9A4201F114010CBF0123F7
:104A600000238A4208BF43F0010314318A4208BF81
:104A700043F0010314318A4208BF43F001031431AB
:104A80008A4208BF43F0010314318A4208BF43F051
:104A900001031BB9914B9A4240F07E81F421022020
:104AA0008F4B01FB0451DFF858C2134481F8B10069
:104AB00014200091B3FBF0F310689B0000EA0C0C8B
:104AC00042F2A0504CEA00004FF0000C81F8B0C058
:104AD00010605046C1F8D830FBF7C8FA009901229F
:104AE000D1F8D81001F01F018A404260FFF797B952
:104AF0004FF00309DBE57B4901447B488900FFF760
:104B000010BB4FF00409D2E578490B6F23F01E0368
:104B100043F016030B670B6F43F008030B67D0F8E5
:104B20006C800EE771498B6D23F01E0343F0160372
:104B30008B658B6D43F008038B65F0E7012113460D
:104B4000DBB26B484FF0010EDFF8B891083BA0FBD9
:104B50000303684800EB131C1B094FEA8C0C0EFA88
:104B600003FEFFF79CBA4FF00609A0E54FF00509D8
:104B70009DE55E490B6C23F01E0343F016030B64A6
:104B80000B6C43F008030B64C9E7DFF86081D8F8C9
:104B9000407027F00107C8F8407048E7DFF84C8103
:104BA000D8F8707027F00107C8F87070D0F86C80E2
:104BB000D0E919174F60B8F1000F7FF422AE3BE641
:104BC000DFF82881D8F8587027F00107C8F8587026
:104BD000ECE7494FDFF830914A4518BFBA4209F176
:104BE00030090CBF012700274A4508BF47F00107DD
:104BF00009F556794A4508BF47F0010709F1180938
:104C00004A4508BF47F0010709F118094A4508BF9E
:104C100047F0010709F118094A4508BF47F00107A5
:104C200009F118094A4508BF47F0010709F11809B9
:104C30004A4508BF47F0010709F118094A4508BF6E
:104C400047F001071FB92D4FBA4240F0BF80F3E58E
:104C5000DFF8B880D8F8B87027F00107C8F8B87046
:104C6000C6E5DFF8A880D8F8A07027F00107C8F8DB
:104C7000A070BDE5DFF89480D8F8887027F00107B0
:104C8000C8F88870B4E5DFF88480D8F8107027F091
:104C90000107C8F81070ABE5DFF85080D8F8B8709D
:104CA00027F00107C8F8B870A2E5DFF84080D8F80F
:104CB000A07027F00107C8F8A07099E5DFF82C80F4
:104CC000D8F8887027F00107C8F8887090E500BF11
:104CD000400D0300085402581C54025894540258C2
:104CE000F8ABFDA73F8200104009024000000240DF
:104CF000CDCCCCCC00960016A0000240B8040240F7
:104D00000F00FEFF80580258880002400004024055
:104D1000DFF88C81D8F8707027F00107C8F8707040
:104D200066E5DFF87C81D8F8587027F00107C8F8ED
:104D300058705DE5DFF86881D8F8407027F001070A
:104D4000C8F8407054E5DFF85881D8F8287027F08B
:104D50000107C8F828704BE55049D1F8A03023F07E
:104D60001E0343F01603C1F8A030D1F8A03043F081
:104D70000803C1F8A030D2E64849D1F8883023F0C2
:104D80001E0343F01603C1F88830D1F8883043F091
:104D90000803C1F88830C2E64023CCF8D0308CF844
:104DA000B1E0FEF773BE4FF0070980E43C49D1F84B
:104DB000B83023F01E0343F01603C1F8B830D1F821
:104DC000B83043F00803C1F8B830A8E6354FDFF833
:104DD000E080424518BFBA4208F114080CBF012711
:104DE0000027424508BF47F0010708F11408424573
:104DF00008BF47F0010708F11408424508BF47F013
:104E0000010708F11408424508BF47F0010708F1FF
:104E10001408424508BF47F001071FB9224FBA42A4
:104E20007FF430ADC16D012701F01F08816807FADA
:104E300008F740297760C2F804B007D09360C2F841
:104E40000CC013E5194B7BE6134679E6C2F808C09F
:104E5000D3600BE5124980E711498EE7104954E60B
:104E60000F4960E60E4985E60D498B6A23F01E0363
:104E700043F016038B628B6A43F008038B624EE6A5
:104E800007490B6923F01E0343F016030B610B69FE
:104E900043F008030B6142E6004988E70000024046
:104EA00000040240085402589454025858540258BE
:104EB0001C5402580148FBF755BB00BFF82C0024D6
:104EC000074810B4836FD0F8AC4099691A6824B1D0
:104ED000234678305DF8044B18475DF8044B704763
:104EE000802C00240148FBF73DBB00BF502D00245F
:104EF000084810B4D0F8D030D0F8044199691A6845
:104F000024B12346D0305DF8044B18475DF8044BBC
:104F1000704700BF802C00240148FBF723BB00BF73
:104F2000A82D0024084810B4D0F82831D0F85C41EE
:104F300099691A682CB1234600F594705DF8044B0A
:104F400018475DF8044B7047802C00242DE9F04F82
:104F5000DFF8549300EB400583B0430009EB85056F
:104F60000093D5F8E4320193002B00F05B8180467A
:104F7000B5F8EA0275F024FE95F8E80210F05AFC44
:104F8000044695F8E90210F055FC08F101030746C4
:104F9000DBB2002C00F06B8140F60C12A18823726A
:104FA000E2802268002800F05681037240F60C234C
:104FB000C38091613B68BA889A6111212046092615
:104FC00010F0F4FB1121384610F0F0FB6525002CA1
:104FD00000F02B812268A38811690B4200F0258123
:104FE0001B04936113F040FA05468B4613F03CFA1C
:104FF000401B61EB0B01052871F10001F6D314B1E0
:105000002368A2889A6113F02FFA05468B4613F0A5
:105010002BFA401B61EB0B01052871F10001F6D35F
:10502000013ED3D11CB1A38822681B04936113F005
:105030001BFA05460E4613F017FA401B61EB0601FA
:10504000052871F10001F6D31FB1BB883A681B0433
:10505000936113F009FA05460E4613F005FA401B5A
:1050600061EB0601052871F10001F6D314B1236844
:10507000A2889A6113F0F8F905460E4613F0F4F988
:10508000401B61EB0601052871F10001F6D317B151
:105090003B68BA889A61009B20463E21434409EB55
:1050A000830393F8EF42224610F0A2FB22463846D3
:1050B0003E2110F09DFB764C5823019A03FB0843D8
:1050C0009A67744B9A4200F0C180FCF729FB724B3F
:1050D000DA69C2F30212714B134493F8303003F0D3
:1050E0001F03D840009B434409EB830393F8EC3241
:1050F000022B00F0B780032B00F0AF80012B14BF10
:105100004FF4C8714FF4487175F0F0FA0346582215
:10511000002102FB0842C2F88010D367C2E92211C5
:10512000C2E925110121C2F8841092F8B91001F0EA
:10513000FF00002900F0A380582123F0706224268C
:105140004FF4004701FB084155488B6F81F8B96067
:105150001D6825F001051D601A619A6822F400425D
:105160009A609F605A6822F400625A605A6810433D
:10517000D1F8902058601202D86820F40040D8601E
:10518000DA6000221A60186840F0010018602020E0
:10519000C1F8BC2081F8B900C1F8A82081F8BA2074
:1051A00091F8B9002028C5B217D191F8B8000128AC
:1051B00013D081F8B960186820F0010018601868F1
:1051C00020F48050186018681860186840F00100DA
:1051D000186081F8B95081F8B820009B022101269F
:1051E000304F434409EB830999F8EE52284675F095
:1051F0004DFF05F01F036A0999F8ED5206FA03F313
:105200000221284647F8223075F040FF582303FB5F
:10521000084405F01F036D0906FA03F347F825302B
:1052200084F8746003B0BDE8F08F013D2AD013F01C
:105230001BF983468A4613F017F9B0EB0B0061EBBC
:105240000A01052871F10001F5D3C0E6FCF768FA00
:10525000114B1A6A3DE79161AFE6C82175F046FA35
:10526000034654E7642175F041FA03464FE70028EE
:105270003FF4A3AE037240F60C23C3809AE682F893
:10528000B80059E7002C3FF4ADAEA3882268A7E62A
:10529000802C0024001C005800440258C0980C08C0
:1052A0000080000200E100E0000000242DE9F04F42
:1052B000441C85B017469DF83C202DD05824DFF8BB
:1052C00098831E46054600FB04F408EB040393F89C
:1052D0007490B9F1000F1FD044444900FF2F04F12E
:1052E0007804039100D0EEB9002A40F0C48058231E
:1052F00003FB058393F8B920202A04D1B6B94FF4F3
:105300000072C3F8BC20B8F87C31284601339BB248
:10531000A8F87C31FFF71AFE4FF00009484605B0A7
:10532000BDE8F08F93F8B930202BECD14FF0580A3C
:105330000AFB058A9AF8B830012BE4D00122D8F88C
:1053400000B019234FF400418AF8B8202046CDF868
:1053500000B0FCF781F90028D5D10E9BDAF878105F
:10536000CAF89C302123B64A8AF8B9304023CAF8DB
:10537000AC008AF8BA30CAF8BC002046AAF8A2608D
:105380004B681340039A1343AE4A1A434A60594686
:1053900075F0FAFD0246002840F0F780DAF8783020
:1053A000802120469F620A23CDF800B0FCF754F913
:1053B000002840F0EA80BAF8A2309BB2FF2B40F2FE
:1053C0001081DAF87810FF239F48AAF8A0304B68C4
:1053D0009E4A0340039803431A434A605826DDF867
:1053E0000CA05F46039506FB058605E0B6F8A230E3
:1053F0009BB2002B00F00A813946204675F0C4FDAF
:10540000002840F0EC80D6F89C10B56F11F8012B05
:10541000B6F8A030AA62C6F89C10013BB6F8A210FC
:105420009BB20139A6F8A03089B2A6F8A210B6F84E
:10543000A21089B2002BD9D10029D7D002460A2365
:10544000802120460097FCF707F9FF22002840F052
:10545000C680B6F8A2309BB2934240F29D80B16FF5
:10546000A6F8A0204B68784A1340784A43EA0A031A
:105470001A434A60BAE74FF0580A0AFB058A9AF8BD
:10548000B930202B7FF43FAF9AF8B830012B3FF4AE
:105490003AAF0122D8F8007019234FF400418AF87E
:1054A000B82020460097FCF7D7F800287FF42BAFF0
:1054B0000E9BCAF8AC00CAF89C3021238AF8B93098
:1054C00010238AF8BA30CAF8BC00AAF8A260BAF869
:1054D000A2309BB2FF2B00F2C180BAF8A2309BB27F
:1054E000AAF8A030002B40F0EA80DAF8781054488F
:1054F0004B68574A0340039803431A434A605826AF
:10550000AA4606FB0586B6F8A23039469BB2002BA8
:1055100000F0CD80204675F037FD002874D1D6F814
:105520009C10B56F11F8012BB6F8A030AA62C6F82E
:105530009C10013BB6F8A2109BB20139A6F8A0302E
:1055400089B2A6F8A210B6F8A21089B2002BDAD15F
:105550000029D8D002460A23802120460097FCF774
:105560007BF8FF2200284FD1B6F8A2309BB29342BD
:1055700023D9B16FA6F8A0204B68334A1340039A91
:105580001343324A1A434A60BDE75823002203FB03
:10559000058383F8B820B6E6B6F8A230B26F9BB2A6
:1055A00029485168A6F8A030DBB201404AEA03431B
:1055B0000B4343F00073536018E7B6F8A230B16FA5
:1055C0009BB2039A2048A6F8A030DBB242EA03431C
:1055D0004A680240134343F000734B6093E7039D16
:1055E00091E6BAF8A230DAF878109BB2039A16481E
:1055F000AAF8A030DBB242EA03434A6802401343F0
:1056000043F000734B60E9E655467CE63946204698
:10561000039D75F08BFC00287FF475AEB36F2021DD
:105620000C4CD9615A6822405A605823002286F8EF
:10563000B91003FB058386F8BA0083F8B8206DE63D
:10564000009800FC00200101009C00FC0000FF010C
:105650000020000200E800FE802C0024FF234FF40D
:105660007F00FE224FF08076AAF8A030039BDDF881
:1056700038E01E4358231EF801AB03FB0583DFF817
:1056800050C0996FC1F828A0A3F8A020B3F8A220B9
